:100000000C9474000C949C000C949C000C949C0028
:100010000C949C000C949C000C949C000C949C00F0
:100020000C949C000C949C000C949C000C949C00E0
:100030000C949C000C949C000C949C000C949C00D0
:100040000C94D6030C949C000C9446040C9420044D
:100050000C949C000C949C000C949C000C949C00B0
:100060000C9478040C949C00084AD73B3BCE016E5C
:1000700084BCBFFDC12F3D6C74319ABD56833DDAFF
:100080003D00C77F11BED9E4BB4C3E916BAAAABE0E
:10009000000000803F000000000800020100000393
:1000A0000407000000000000000000000000250020
:1000B00028002B0000000000240027002A00040470
:1000C0000404040404040202020202020303030300
:1000D00003030102040810204080010204081020DC
:1000E000010204081020A90B11241FBECFEFD8E095
:1000F000DEBFCDBF12E0A0E0B1E0E2EEFFE102C062
:1001000005900D92AE33B107D9F724E0AEE3B2E02B
:1001100001C01D92AE32B207E1F710E0C4E7D0E0B3
:1001200004C02197FE010E94E40FC337D107C9F72D
:100130000E94E8070C94EF0F0C94000008950895B6
:10014000CF92DF92EF92FF920F931F93CF93DF93A3
:100150006C017A018B01C0E0D0E0CE15DF0581F0A3
:10016000D8016D918D01D601ED91FC910190F08146
:10017000E02DC6010995892B11F02196EECF7E0165
:10018000C701DF91CF911F910F91FF90EF90DF900A
:10019000CF900895FC01538D448D252F30E0842F9E
:1001A00090E0821B930B541710F0CF96089501979F
:1001B0000895FC01918D828D981761F0828DDF0189
:1001C000A80FB11D5D968C91928D9F5F9F73928F4A
:1001D00090E008958FEF9FEF0895FC01918D828D3F
:1001E000981731F0828DE80FF11D858D90E008950C
:1001F0008FEF9FEF0895FC01918D228D892F90E064
:10020000805C9F4F821B91098F739927089586E028
:1002100093E00E94FB0021E0892B09F420E0822F6B
:100220000895FC01848DDF01A80FB11DA35ABF4FB3
:100230002C91848D90E001968F739927848FA689E5
:10024000B7892C93A089B1898C91837080648C9339
:10025000938D848D981306C00288F389E02D8081E8
:100260008F7D80830895EF92FF920F931F93CF931A
:10027000DF93EC0181E0888F9B8D8C8D981305C0F6
:10028000E889F989808185FD26C0F62E0B8D10E066
:100290000F5F1F4F0F731127E02E8C8DE8120CC0DB
:1002A0000FB607FCFACFE889F989808185FFF5CF81
:1002B000CE010E941101F1CF8B8DFE01E80FF11DDF
:1002C000E35AFF4FF0829FB7F8940B8FEA89FB89BE
:1002D000808180620AC09FB7F894EE89FF896083AD
:1002E000E889F98980818370806480839FBF81E081
:1002F00090E0DF91CF911F910F91FF90EF900895C3
:10030000CF93DF93EC01888D8823C9F0EA89FB89BC
:10031000808185FD05C0A889B9898C9186FD0FC0B3
:100320000FB607FCF5CF808185FFF2CFA889B98988
:100330008C9185FFEDCFCE010E941101E7CFDF91B7
:10034000CF91089580E090E0892B29F00E94070169
:1003500081110C940000089585ED8093BC0080917C
:10036000BC0084FDFCCF10920503089540915E020D
:10037000262F30E0240F311D21323105DCF420918D
:1003800005032430C9F4FC0180E090E0861758F49E
:1003900030915E022191DC01A25CBD4FA30FB11D23
:1003A0002C930196F3CF80915E02680F60935E02FA
:1003B00080E0089581E0089582E008950895E09135
:1003C0009B0280919A02E81730F4F0E0E154FD4F6F
:1003D000808190E008958FEF9FEF089590919B02A8
:1003E00080919A02981750F4E92FF0E0E154FD4F04
:1003F000208130E09F5F90939B0202C02FEF3FEF80
:10040000C901089580919A0290E020919B02821B7D
:1004100091090895CF92DF92EF92FF920F931F936D
:10042000CF93DF937C01CB018A0120919C02222390
:1004300089F0EB016B01C40ED51ECC15DD0569F00A
:100440006991D701ED91FC910190F081E02DC701F8
:100450000995F3CF642F0E94B601C801DF91CF91B7
:100460001F910F91FF90EF90DF90CF900895CF9361
:10047000DF931F92CDB7DEB7698320919C022223C0
:10048000D1F02091BE02203240F021E030E0FC01AA
:100490003383228380E090E015C080919D02E82F95
:1004A000F0E0E256FD4F998190838F5F80939D022B
:1004B0008093BE0205C061E0CE0101960E94B601A4
:1004C00081E090E00F90DF91CF910895089580E052
:1004D00090E008952F923F924F925F926F927F9299
:1004E0008F929F92AF92BF92CF92DF92EF92FF9244
:1004F0000F931F93CF93DF93CDB7DEB7A4970FB6BB
:10050000F894DEBF0FBECDBF4B015C01F42E9B0102
:10051000AC010E94A80F882319F08DE291E027C05A
:1005200024013501E89477F82FEF3FEF4FE75FE7BD
:10053000C301B2010E94A80F81110DC02FEF3FEF40
:100540004FE75FE7C301B2010E94650D18161CF466
:1005500081E391E00CC02FEF3FEF4FE75FE4C5016F
:10056000B4010E94E40E18162CF485E391E00E9479
:10057000C307B4C02FEF3FEF4FE75FECC501B401F5
:100580000E94650D87FDF1CF20E030E0A901C50193
:10059000B4010E94650D87FF09C08DE20E94E30748
:1005A0003C01B7FAB094B7F8B09402C0612C712C3A
:1005B00010E060E070E080E09FE3F11641F020E0A1
:1005C00030E040E251E40E946A0D1F5FF6CFA501C2
:1005D00094010E94870C4B015C010E94DC0D6AA310
:1005E000C72ED82EE92E19A2262F372F482F592F84
:1005F0008E010F5D1F4F0BA31CA39AE0292E312CF7
:10060000412C512CCA01B901A20191010E94C20FD3
:10061000605DF80162938F01211531054105510597
:1006200089F7CF010E94C3078301080F191FFF201C
:1006300009F453C06AA17C2D8D2D9E2D0E940B0EB6
:100640009B01AC01C501B4010E94860C4B015C0109
:100650008EE20E94E307080F191F8AE0282E312C32
:10066000412C512C20E030E040E251E4C501B401BE
:100670000E94F10E4B015C010E94DC0D9B0140E0E9
:1006800050E019A2CBA0DCA0762E3AA3642EE52E72
:10069000CA01B901A20191010E94C20F605DF60179
:1006A00062936F01211531054105510589F7CF018D
:1006B0000E94C307080F191F672D7AA1862D9E2D52
:1006C0000E940B0E9B01AC01C501B4010E94860C77
:1006D0004B015C01FA94F110C5CFC801A4960FB686
:1006E000F894DEBF0FBECDBFDF91CF911F910F9168
:1006F000FF90EF90DF90CF90BF90AF909F908F9042
:100700007F906F905F904F903F902F9008950E9440
:10071000EA0F90E0FC01EA56FF4F2491FC01EE52F3
:10072000FF4F3491FC01E254FF4FE491EE2309F4B2
:100730003CC0222339F1233091F038F42130A9F064
:10074000223001F584B58F7D12C0273091F028301A
:10075000A1F02430B9F4809180008F7D03C0809196
:1007600080008F77809380000DC084B58F7784BD23
:1007700009C08091B0008F7703C08091B0008F7D59
:100780008093B000F0E0EE0FFF1FE655FF4FA591FC
:10079000B4919FB7F894611104C08C9130953823BF
:1007A00002C0EC913E2B3C939FBF08951F920F9285
:1007B0000FB60F9211242F933F938F939F93AF9374
:1007C000BF938091960290919702A0919802B09168
:1007D00099023091950223E0230F2D3720F40196E2
:1007E000A11DB11D05C026E8230F0296A11DB11D54
:1007F000209395028093960290939702A09398027B
:10080000B09399028091910290919202A0919302EB
:10081000B09194020196A11DB11D80939102909315
:100820009202A0939302B0939402BF91AF919F91D3
:100830008F913F912F910F900FBE0F901F901895A1
:100840001F920F920FB60F9211242F933F934F9345
:100850005F936F937F938F939F93AF93BF93EF9328
:10086000FF9386E093E00E941101FF91EF91BF9109
:10087000AF919F918F917F916F915F914F913F9138
:100880002F910F900FBE0F901F9018951F920F92EF
:100890000FB60F9211242F938F939F93EF93FF9393
:1008A000E0911603F09117038081E0911C03F09111
:1008B0001D0382FD12C0908180911F038F5F8F7393
:1008C00020912003821751F0E0911F03F0E0EA5FCE
:1008D000FC4F958F80931F0301C08081FF91EF91A2
:1008E0009F918F912F910F900FBE0F901F90189591
:1008F0001F920F920FB60F9211242F933F934F9395
:100900005F936F937F938F939F93AF93BF93EF9377
:10091000FF938091B900887F803609F49CC068F508
:10092000883209F45BC090F4803109F454C038F483
:10093000882309F4F6C0883009F44DC0F6C0883128
:1009400009F44CC0803209F45DC0EFC0803409F472
:1009500068C048F4803309F455C0883309F0E5C015
:1009600080930303D8C0803509F44FC0883509F45B
:100970005DC0883409F0D9C0D6C0883909F4C7C031
:10098000A8F4883709F467C038F4883609F463C0DE
:10099000803709F460C0C9C0883809F4B8C080390C
:1009A00009F45FC0803809F0C0C05BC0803B09F427
:1009B00086C038F4803A09F466C0883A09F47FC0EA
:1009C000B4C0803C09F4A7C0883C09F4A4C0883BAB
:1009D00009F48AC0AAC08091000310C0909102035C
:1009E00080910103981770F5E091020381E08E0F6A
:1009F00080930203F0E0E152FD4F80818093BB00C1
:100A000085EC86C0809303038EC0E091020381E0F1
:100A10008E0F809302038091BB00F0E0E152FD4F06
:100A2000808390910203809101036EC0E0910203E4
:100A300081E08E0F809302038091BB00F0E0E152D1
:100A4000FD4F80838091040381116DC081E080930C
:100A5000FF0284EA61C083E0809305031092800264
:100A6000CFCF80918002803208F051C0E0918002A7
:100A700081E08E0F809380028091BB00F0E0E05A0D
:100A8000FD4F8083BDCF85EC8093BC0010920503A1
:100A900080918002803230F4E0918002F0E0E05AF0
:100AA000FD4F10826091800270E0E0918102F09130
:100AB000820280E692E009951092800236C084E0BE
:100AC0008093050310925F0210925E02E091830210
:100AD000F0918402099580915E02811105C081E048
:100AE00080935E0210923E02E0915F0281E08E0FE1
:100AF00080935F02F0E0E25CFD4F80818093BB0059
:100B000090915F0280915E02981708F479CF85E892
:100B10008093BC000AC085EC8093BC001092050352
:100B200004C0109203030E94AC01FF91EF91BF91AA
:100B3000AF919F918F917F916F915F914F913F9175
:100B40002F910F900FBE0F901F9018958EBD000033
:100B50000DB407FEFDCF8EB5089590910503911158
:100B6000FCCF91E090930503909304032FEF209323
:100B7000030310920203260F2093010390930003B6
:100B800090910003880F892B809300038091FF02CE
:100B9000813061F41092FF02809100038093BB00CA
:100BA0008091BC0083FDF8CF85EC01C085EE809379
:100BB000BC00809105038130E1F380910203861728
:100BC00010F460910203AFEDB2E0EFEBF2E080E0F1
:100BD000861721F09D9191938F5FFACF0895282F6A
:100BE0003091BE02313208F04AC080910503811174
:100BF000FCCF90912D0442E0409305032093040321
:100C00002FEF209303031092020330930103EEE9C8
:100C1000F2E0AFEDB2E020E0321721F041914D93C8
:100C20002F5FFACF1092000320910003990F922BAF
:100C3000909300039091FF02913061F41092FF02B3
:100C4000909100039093BB009091BC0093FDF8CF6E
:100C500095EC01C095EE9093BC0090910503923005
:100C6000E1F3909103039F3F79F080910303803279
:100C700041F080910303803331F084E005C081E0CE
:100C800003C082E001C083E010929D021092BE0278
:100C900010929C020895CF93C42F91E090939C02F0
:100CA00080932D0410929D021092BE0283EA93E07D
:100CB0000E9437026C2F83EA93E00E94370281E0A2
:100CC000CF910C94EF05CF93C82F81E080939C02C5
:100CD000C0932D0410929D021092BE0283EA93E00D
:100CE0000E94370280E00E94EF0561E08C2F0E9495
:100CF000AD0510929B0280939A0283EA93E00E94D2
:100D0000EE01CF910895CF92DF92EF92FF920F9371
:100D10001F93CF93DF93D82F7A01C22F6F73162FB3
:100D2000106880911E048D1304C0223010F0162F1D
:100D3000106C60E08D2F0E948903812F0E94A60510
:100D40008701CC2ED12CC8018E199F098C159D05C9
:100D50003CF480E00E94A605F80181938F01F3CF57
:100D600061E08D2F0E9489038C2FDF91CF911F911D
:100D70000F91FF90EF90DF90CF900895EF92FF9248
:100D80001F93CF93DF93C82F7A0181E080939C0259
:100D9000C0932D0410929D021092BE02606883EAF7
:100DA00093E00E94370280E00E94EF05882311F053
:100DB00010E017C066E08C2F0E94AD05182F10922E
:100DC0009B0280939A02863099F7E70186E0E80E4D
:100DD000F11C83EA93E00E94EE018993EC16FD0674
:100DE000C1F7812FDF91CF911F91FF90EF90089570
:100DF0001F93CF93DF93462F9091AF03913041F42F
:100E0000682F80911E04DF91CF911F910C944B06A7
:100E1000911116C0C62FD82F10911E0460E0812FAB
:100E20000E9489038D2F8F730E94A6058C2F0E942C
:100E3000A60561E0812FDF91CF911F910C9489036A
:100E4000DF91CF911F9108951F93CF93DF93462F8A
:100E50009091AF03913041F4682F80911F04DF918E
:100E6000CF911F910C944B06911116C0C62FD82F0D
:100E700010911F0460E0812F0E9489038D2F8F73D2
:100E80000E94A6058C2F0E94A60561E0812FDF91AC
:100E9000CF911F910C948903DF91CF911F910895F9
:100EA000CF93DF931F92CDB7DEB7682F8091AF034A
:100EB000813029F480911F040E9463060DC08111C6
:100EC0000AC021E0AE014F5F5F4F80911F040E9476
:100ED0008306898101C08FEF0F90DF91CF91089534
:100EE000CF93DF931F92CDB7DEB7682F8091AF030A
:100EF000813029F480911E040E9463060DC0811187
:100F00000AC021E0AE014F5F5F4F80911E040E9436
:100F10008306898101C08FEF0F90DF91CF910895F3
:100F200090E0FC01EE52FF4F2491FC01E254FF4F90
:100F30008491882399F090E0880F991FFC01EC546C
:100F4000FF4FA591B491FC01E655FF4F8591949117
:100F50008FB7F894EC91E22BEC938FBF0895AB011F
:100F60009091AF03913029F4682F80911F040C9465
:100F7000BE06911106C026E0682F80911F040C94D4
:100F800083068FEF0895009769F0FC01019000201F
:100F9000E9F73197AF01481B590BBC0186E093E09C
:100FA0000C94A00080E090E00895CF93DF930E941E
:100FB000C307EC0180E192E00E94C3078C0F9D1FE4
:100FC000DF91CF910895682F86E093E00C94330170
:100FD000CF93DF9300D000D000D0CDB7DEB77894A8
:100FE00084B5826084BD84B5816084BD85B582602E
:100FF00085BD85B5816085BD80916E0081608093DF
:101000006E00109281008091810082608093810047
:101010008091810081608093810080918000816057
:10102000809380008091B10084608093B1008091B2
:10103000B00081608093B00080917A0084608093DA
:101040007A0080917A00826080937A0080917A00A1
:10105000816080937A0080917A00806880937A0022
:101060001092C100E0911603F091170382E0808393
:10107000E0911203F09113031082E0911403F091B8
:10108000150318E0108310921E03E0911A03F091EB
:101090001B0386E08083E0911803F091190380819F
:1010A00080618083E0911803F0911903808188604A
:1010B0008083E0911803F091190380818068808318
:1010C000E0911803F091190380818F7D808389E37B
:1010D00091E00E94D50781E08093AF039EE1909359
:1010E000B1032BE62093B00330E13093C30344EF08
:1010F00051E05093B4034093B3031093CC03209377
:101100001F0490931E0449E25CE56FE87CE3409382
:10111000200450932104609322047093230444E23A
:101120005BE068E979E340932804509329046093D5
:101130002A0470932B0440EB53EE6FE37AE3409361
:10114000240450932504609326047093270410927E
:101150009B0210929A0210929D021092BE0210926F
:101160000503809304031092FF0261E082E10E9474
:10117000890361E083E10E9489038091B9008E7F39
:101180008093B9008091B9008D7F8093B90088E485
:101190008093B80085E48093BC008EE990E0909342
:1011A0008402809383028FE990E09093820280937F
:1011B00081028FE00E947007182F8FE00E94500775
:1011C000212F30E0382B2D33384609F0BFC28091F3
:1011D000B203882331F08091B5038295880F807E19
:1011E00001C080E02091B3033091B403243F91E02B
:1011F000390729F0203D374019F4886101C0886023
:101200006091B6036370682B80E10E94240760E060
:1012100081E10E9424078091B703882311F060E8E0
:1012200001C060E08091B803882329F08091B90360
:101230008F708064682B82E10E9424078091C00334
:10124000811102C060E001C060E28091BF038111A2
:1012500060618091BE03811168608091C10381113A
:1012600062608EE10E9424078091BA03811102C05E
:1012700060E001C060E28091BB03811160618091F8
:10128000BC038111686083E10E9424078091C70339
:10129000811102C060E001C060E28091C60381114B
:1012A00060618091C503811168608FE10E9424070D
:1012B0008091C203882331F06091C4036295660F68
:1012C000607E01C060E08091C303883031F08031DE
:1012D00031F0843029F4606103C0686101C0686046
:1012E0008091C80387FD03C083706460682B80E22F
:1012F0000E9424078091C903882349F06091CA03A2
:10130000637080E2689FB0011124606801C060E0F2
:1013100081E20E9424078091CE03811102C060E027
:1013200001C060E82091CF03237090E2299F9001D3
:1013300011249091CD03977044E0949FC001112433
:10134000822B682B80E20E94F806E091CC03E850E3
:10135000E93028F4F0E0E050FF4F608101C060E028
:1013600081E20E94F8068091D103811180E26091B0
:10137000D2036370682B82E20E94F8066091D0036A
:101380006370660F660F83E20E94F80660E084E2F5
:101390000E94F8068CE591E00E94D50789E791E06C
:1013A0000E94D50787E20E94500780FFFBCFBE0155
:1013B0006F5F7F4F88E20E94AF078630A1F54981B9
:1013C0005A815093DB034093DA032B813C813093A5
:1013D000DD032093DC038D819E819093DF03809356
:1013E000DE0360912C046623F1F060911204709189
:1013F0001304461B570B5093DB034093DA034091D1
:10140000140450911504241B350B3093DD032093F5
:10141000DC032091160430911704821B930B9093E8
:10142000DF038093DE0387E20E94500781FFBACF7B
:10143000BE016F5F7F4F88E10E94AF078630A1F544
:1014400049815A815093D5034093D4032B813C8129
:101450003093D7032093D6038D819E819093D90337
:101460008093D80360912C046623F1F060910C0402
:1014700070910D04461B570B5093D5034093D40332
:1014800040910E0450910F04241B350B3093D70369
:101490002093D6032091100430911104821B930BEA
:1014A0009093D9038093D80387E20E94700783FF4B
:1014B00079CF8091AF03813049F4AE014F5F5F4F28
:1014C00068E280911E040E94BE060BC081111DC0FF
:1014D00026E0AE014F5F5F4F68E280911E040E94DC
:1014E0008306863091F489819A819093E1038093F9
:1014F000E0038B819C819093E3038093E2038D81D1
:101500009E819093E5038093E4030091DE031091A4
:10151000DF03A090DC03B090DD03B801012E000CC6
:10152000880B990B0E940D0E6B017C01B5010B2CF1
:10153000000C880B990B0E940D0EA70196010E94CA
:10154000060D6B017C01AA9CB001AB9C700D700D67
:101550001124009FC001019F900D900D1124680F70
:10156000791F072E000C880B990B0E940D0E0E940C
:10157000640F4B015C016091DA037091DB0371959C
:1015800061957109072E000C880B990B0E940D0EB6
:10159000A50194010E94060D2B013C016091E2031C
:1015A0007091E3030091E0031091E103611571056F
:1015B00099F417FF05C08BED9FE0A9E4B0E403C0E8
:1015C00080E090E0DC018093850290938602A093F6
:1015D0008702B09388021AC0072E000C880B990B63
:1015E0000E940D0E4B015C01B801110F880B990B85
:1015F0000E940D0EA50194010E94060D60938502C4
:1016000070938602809387029093880224E43BE9DA
:1016100043E55CE3609185027091860280918702C8
:10162000909188020E94870C4B015C012BED3FE0FA
:1016300049E450E40E94E40E18164CF42BED3FE010
:1016400049EC50E4C501B4010E94860C1BC02BED8F
:101650003FE049E450ECC501B4010E94650D87FDEF
:1016600009C08092850290928602A0928702B09271
:10167000880210C02BED3FE049EC50E4C501B401F5
:101680000E94870C60938502709386028093870284
:101690009093880220EE3EE245E652E46091850296
:1016A0007091860280918702909188020E94F10ECB
:1016B00060938502709386028093870290938802DC
:1016C00020EE3EE245E652E4C301B2010E94F10E73
:1016D0006093890270938A0280938B0290938C02AC
:1016E00020EE3EE245E652E4C701B6010E94F10E4B
:1016F00060938D0270938E0280938F02909390027C
:1017000042E00E946A028CE20E94E3076091890233
:1017100070918A0280918B0290918C0242E00E942B
:101720006A028CE20E94E307609185027091860252
:10173000809187029091880242E00E946A0280E1D3
:1017400092E00E94C3070E94A2012CCE83E192E0A6
:1017500023CECF93DF93109209031092080388EEF3
:1017600093E0A0E0B0E080930A0390930B03A09372
:101770000C03B0930D032DE031E030930703209369
:10178000060325EC30E0309313032093120324EC7E
:1017900030E0309315032093140320EC30E03093B5
:1017A00017032093160321EC30E0309319032093A4
:1017B000180322EC30E030931B0320931A0326EC2D
:1017C00030E030931D0320931C0310921F031092EE
:1017D000200310922103109222031092A60310926C
:1017E000A5038093A7039093A803A093A903B093A4
:1017F000AA038FE191E09093A4038093A30381E077
:101800008093AF039BE69093B0039EE19093B10366
:101810008093B2038093BE038093BF038093C00381
:1018200025EF30E03093B4032093B30396E0909318
:10183000B5031092B6031092B7031092B80310923A
:10184000B9031092BA031092BB031092BC0310921A
:10185000BD038093C1038093C2038093C50380932B
:10186000C6038093C70322E02093C3039093C4036D
:101870009FEF9093C8031092C9031092CA038093FC
:10188000CB0394E09093CC0397E09093CD03109218
:10189000CE0393E09093CF039093D0031092D103A3
:1018A0001092D2038093D303EFEAF3E02CE034E00C
:1018B000C2E1D4E068E174E083E090E011AE12AEE2
:1018C00013AE14AEAF014B5B5F4FDA011D921D9258
:1018D0001D921C921397445F5F4FDA011D921D9277
:1018E0001D921C921397D9011D921D929D01199270
:1018F0001992DB011D921D92BD010197349600974C
:10190000E9F610922C04DF91CF9108955058BB272F
:10191000AA270E949E0C0C94AA0E0E949C0E38F0DE
:101920000E94A30E20F039F49F3F19F426F40C9482
:10193000720E0EF4E095E7FB0C946C0EE92F0E94FA
:10194000BB0E58F3BA17620773078407950720F098
:1019500079F4A6F50C94DD0E0EF4E0950B2EBA2F5B
:10196000A02D0B01B90190010C01CA01A0011124A5
:10197000FF27591B99F0593F50F4503E68F11A1651
:10198000F040A22F232F342F4427585FF3CF4695E2
:1019900037952795A795F0405395C9F77EF41F1604
:1019A000BA0B620B730B840BBAF09150A1F0FF0FCE
:1019B000BB1F661F771F881FC2F70EC0BA0F621FBA
:1019C000731F841F48F4879577956795B795F795AA
:1019D0009E3F08F0B0CF9395880F08F09927EE0F3F
:1019E0009795879508950E949C0E60F080E891E09D
:1019F00009F49EEF0E94A30E28F040E851E071F434
:101A00005EEF0CC00C94720E0C94DD0EE92FE078A2
:101A10000E94BB0E40F3092E052AB1F326173707A3
:101A20004807590738F00E2E07F8E02569F0E02541
:101A3000E0640AC0EF6307F8009407FADB01B9011C
:101A40009D01DC01CA01AD01EF930E94810D0E944E
:101A5000AA0E0E94360D5F91552339F02BED3FE021
:101A600049E450FD49EC0C94870C0895DF93DD2781
:101A7000B92FBF7740E85FE31616170648075B07E4
:101A800018F4D92F0E94E90E9F938F937F936F9341
:101A90000E94A40FE8E6F0E00E94750E0E94AA0ED4
:101AA0002F913F914F915F910E94040FDD2351F0E0
:101AB0009058A2EA2AED3FE049EC5FE3D0785D2739
:101AC0000E949E0CDF910C94AA0E0E94480E08F40E
:101AD00081E008950E947E0D0C94AA0E0E94A30E30
:101AE00058F00E949C0E40F029F45F3F29F00C94BE
:101AF0006C0E51110C94DE0E0C94720E0E94BB0EF3
:101B000068F39923B1F3552391F3951B550BBB272C
:101B1000AA2762177307840738F09F5F5F4F220F71
:101B2000331F441FAA1FA9F335D00E2E3AF0E0E868
:101B300032D091505040E695001CCAF72BD0FE2FB2
:101B400029D0660F771F881FBB1F26173707480746
:101B5000AB07B0E809F0BB0B802DBF01FF279358FE
:101B60005F4F3AF09E3F510578F00C946C0E0C9448
:101B7000DE0E5F3FE4F3983ED4F386957795679544
:101B8000B795F7959F5FC9F7880F911D9695879533
:101B900097F90895E1E0660F771F881FBB1F621752
:101BA00073078407BA0720F0621B730B840BBA0B10
:101BB000EE1F88F7E09508950E94C30E88F09F57A6
:101BC00098F0B92F9927B751B0F0E1F0660F771F61
:101BD000881F991F1AF0BA95C9F714C0B13091F057
:101BE0000E94DD0EB1E008950C94DD0E672F782F72
:101BF0008827B85F39F0B93FCCF38695779567951C
:101C0000B395D9F73EF490958095709561957F4F87
:101C10008F4F9F4F0895E89409C097FB3EF490952D
:101C20008095709561957F4F8F4F9F4F9923A9F0B5
:101C3000F92F96E9BB279395F69587957795679544
:101C4000B795F111F8CFFAF4BB0F11F460FF1BC088
:101C50006F5F7F4F8F4F9F4F16C0882311F096E91B
:101C600011C0772321F09EE8872F762F05C06623C9
:101C700071F096E8862F70E060E02AF09A95660F82
:101C8000771F881FDAF7880F9695879597F908953B
:101C9000990F0008550FAA0BE0E8FEEF161617067D
:101CA000E807F907C0F012161306E407F50798F0E5
:101CB000621B730B840B950B39F40A2661F0232BFE
:101CC000242B252B21F408950A2609F4A140A6957A
:101CD0008FEF811D811D089597F99F6780E870E05F
:101CE00060E008959FEF80EC0895DF93CF931F93FA
:101CF0000F93FF92EF92DF927B018C01689406C0F4
:101D0000DA2EEF010E94040FFE01E894A5912591BF
:101D1000359145915591A6F3EF010E949E0CFE016D
:101D20009701A801DA9469F7DF90EF90FF900F9187
:101D30001F91CF91DF91089500240A94161617067B
:101D400018060906089500240A94121613061406AC
:101D500005060895092E0394000C11F4882352F00F
:101D6000BB0F40F4BF2B11F460FF04C06F5F7F4FC7
:101D70008F4F9F4F089557FD9058440F551F59F0AE
:101D80005F3F71F04795880F97FB991F61F09F3F68
:101D900079F087950895121613061406551FF2CF91
:101DA0004695F1DF08C0161617061806991FF1CFE1
:101DB00086957105610508940895E894BB27662708
:101DC0007727CB0197F908950E94480E08F48FEF0A
:101DD00008959B01AC0160E070E080E89FE30C9403
:101DE0006A0D0E94040F0C94AA0E0E949C0E38F0FB
:101DF0000E94A30E20F0952311F00C946C0E0C940D
:101E0000720E11240C94DE0E0E94BB0E70F3959F8F
:101E1000C1F3950F50E0551F629FF001729FBB27E1
:101E2000F00DB11D639FAA27F00DB11DAA1F649F7D
:101E30006627B00DA11D661F829F2227B00DA11D30
:101E4000621F739FB00DA11D621F839FA00D611DB6
:101E5000221F749F3327A00D611D231F849F600DD7
:101E6000211D822F762F6A2F11249F5750409AF000
:101E7000F1F088234AF0EE0FFF1FBB1F661F771F8C
:101E8000881F91505040A9F79E3F510580F00C9457
:101E90006C0E0C94DE0E5F3FE4F3983ED4F386950F
:101EA00077956795B795F795E7959F5FC1F7FE2BF7
:101EB000880F911D9695879597F9089519F416F452
:101EC0000C94720E0C94AD0F0E94C30EB8F39923BC
:101ED000C9F3B6F39F57550B87FF0E94BB0F002431
:101EE000A0E640EA900180585695979528F4805CCA
:101EF000660F771F881F20F026173707480730F432
:101F0000621B730B840B202931294A2BA695179449
:101F10000794202531254A2758F7660F771F881F19
:101F200020F026173707480730F4620B730B840B39
:101F3000200D311D411DA09581F7B901842F9158C5
:101F4000880F9695879508959B01AC010C94F10E2E
:101F50000E94480E880B990B08959F3F31F09150D5
:101F600020F4879577956795B795880F911D96957D
:101F7000879597F9089591505040660F771F881FF5
:101F8000D2F70895A1E21A2EAA1BBB1BFD010DC0BA
:101F9000AA1FBB1FEE1FFF1FA217B307E407F50719
:101FA00020F0A21BB30BE40BF50B661F771F881FF5
:101FB000991F1A9469F760957095809590959B018B
:101FC000AC01BD01CF010895EE0FFF1F0590F49104
:101FD000E02D099481E090E0F8940C94EF0FF894D0
:021FE000FFCF31
:101FE200200000004000000060000000003301A05B
:101FF20000CA008001FB00D900ED0000000000379C
:10200200020A026702DE010202EE01DF016E616E68
:1020120000696E66006F7666004C534D3944533149
:10202200206973206265696E6720696E69746961EF
:102032006C697A65642E2E2E2E2E2E004C534D394D
:1020420044533120686173206265656E20696E6950
:102052007469616C697A656400416363656C2058D8
:10206200286D2F732A73292C416363656C205928CC
:102072006D2F732A73292C416363656C205A286D76
:102082002F732A73292C4779726F20582864656749
:102092002F73292C4779726F2059286465672F7333
:1020A200292C4779726F205A286465672F73292C6F
:1020B2004D61676E65746963205828476175737353
:1020C200292C4D61676E65746963205928476175D3
:1020D2007373292C4D61676E65746963205A2847B2
:1020E20061757373292C54696D65286D73292C00F1
:1020F2000D0A004552524F52203A204C534D39445A
:102102005331206861736E2774206265656E2069A1
:0E2112006E697469616C697A65642121000050
:107800000C94343C0C94513C0C94513C0C94513CE1
:107810000C94513C0C94513C0C94513C0C94513CB4
:107820000C94513C0C94513C0C94513C0C94513CA4
:107830000C94513C0C94513C0C94513C0C94513C94
:107840000C94513C0C94513C0C94513C0C94513C84
:107850000C94513C0C94513C0C94513C0C94513C74
:107860000C94513C0C94513C11241FBECFEFD8E036
:10787000DEBFCDBF11E0A0E0B1E0ECE9FFE702C060
:1078800005900D92A230B107D9F712E0A2E0B1E065
:1078900001C01D92AD30B107E1F70E942D3D0C945F
:1078A000CC3F0C94003C982F959595959595959582
:1078B000905D8F708A307CF0282F295A8091C0000B
:1078C00085FFFCCF9093C6008091C00085FFFCCF60
:1078D0002093C6000895282F205DF0CF982F809127
:1078E000C00085FFFCCF9093C6000895EF92FF92F1
:1078F0000F931F93EE24FF2487018091C00087FD22
:1079000017C00894E11CF11C011D111D81E4E8164B
:1079100082E4F8068FE0080780E0180770F3E09132
:107920000401F091050109958091C00087FFE9CF1E
:107930008091C6001F910F91FF90EF9008950E94D3
:10794000763C982F8091C00085FFFCCF9093C600B5
:1079500091362CF490330CF09053892F089597555D
:10796000892F08951F930E949F3C182F0E949F3CCF
:107970001295107F810F1F9108951F93182F882350
:1079800021F00E94763C1150E1F71F9108951F935A
:10799000182F0E94763C803249F0809103018F5F5E
:1079A000809303018530C1F01F9108958091C0003C
:1079B00085FFFCCF84E18093C6008091C00085FFE5
:1079C000FCCF1093C6008091C00085FFFCCF80E102
:1079D0008093C6001F910895E0910401F091050184
:1079E00009951F9108950E94763C803241F0809164
:1079F00003018F5F80930301853081F008958091AA
:107A0000C00085FFFCCF84E18093C6008091C00058
:107A100085FFFCCF80E18093C6000895E0910401CA
:107A2000F09105010995089540E951E08823A1F0FE
:107A30002D9A28EE33E0FA013197F1F721503040CA
:107A4000D1F72D9828EE33E0FA013197F1F7215064
:107A50003040D1F7815061F708953F924F925F9285
:107A60006F927F928F929F92AF92BF92CF92DF924E
:107A7000EF92FF920F931F93CF93DF93000080E16B
:107A80008093C4001092C50088E18093C10086E015
:107A90008093C2005098589A259A81E00E94143D24
:107AA00024E1F22E9EE1E92E85E9D82E0FE0C02ECA
:107AB00010E1B12EAA24A394B1E49B2EA6E58A2E50
:107AC000F2E57F2EE0E26E2E79E4572E63E5462E36
:107AD00050E5352E0E94763C8033B1F18133B9F107
:107AE000803409F46FC0813409F476C0823409F41B
:107AF00085C0853409F488C0803531F1823521F1A3
:107B0000813511F1853509F485C0863509F48DC0BC
:107B1000843609F496C0843709F403C1853709F423
:107B200072C1863709F466C0809103018F5F80932C
:107B30000301853079F6E0910401F0910501099582
:107B40000E94763C803351F60E94F33CC3CF0E94E2
:107B5000763C803249F78091C00085FFFCCFF092DF
:107B6000C6008091C00085FFFCCF9092C600809136
:107B7000C00085FFFCCF8092C6008091C00085FFC9
:107B8000FCCF7092C6008091C00085FFFCCF609250
:107B9000C6008091C00085FFFCCF5092C600809146
:107BA000C00085FFFCCF4092C6008091C00085FFD9
:107BB000FCCF3092C6008091C00085FFFCCFB09210
:107BC000C60088CF0E94763C863808F4BDCF0E945C
:107BD000763C0E94F33C7ECF0E94763C803809F4CC
:107BE0009CC0813809F40BC1823809F43CC1883942
:107BF00009F48FC080E00E94C73C6CCF84E10E94F2
:107C0000BD3C0E94F33C66CF85E00E94BD3C0E94D3
:107C1000F33C60CF0E94763C809306010E94763C44
:107C2000809307010E94F33C55CF0E94763C80333D
:107C300009F41DC183E00E94BD3C80E00E94C73C66
:107C400049CF0E94763C809309020E94763C809343
:107C5000080280910C028E7F80930C020E94763C79
:107C6000853409F415C18091080290910902892B8D
:107C700089F000E010E00E94763CF801E85FFE4FDA
:107C800080830F5F1F4F80910802909109020817AF
:107C9000190788F30E94763C803209F045CF809125
:107CA0000C0280FF01C16091060170910701660F0F
:107CB000771F7093070160930601A0910802B091AD
:107CC00009021097C9F0E8E0F1E09B01AD014E0F09
:107CD0005F1FF999FECF32BD21BD819180BDFA9A17
:107CE000F99A2F5F3F4FE417F50799F76A0F7B1F4B
:107CF00070930701609306018091C00085FFFCCF5F
:107D0000F092C6008091C00085FFFCCFB092C60003
:107D1000E1CE83E00E94C73CDDCE82E00E94C73CFA
:107D2000D9CE0E94763C809309020E94763C8093D3
:107D300008028091060190910701880F991F909386
:107D40000701809306010E94763C853409F4A6C0A1
:107D500080910C028E7F80930C020E94763C8032D0
:107D600009F0B8CE8091C00085FFFCCFF092C6002C
:107D7000609108027091090261157105B9F140E046
:107D800050E080910C02A82FA170B82FB27011C0E2
:107D9000BB2309F45CC0E0910601F0910701319624
:107DA000F0930701E09306014F5F5F4F46175707B7
:107DB000E8F4AA2369F3F999FECF209106013091E6
:107DC000070132BD21BDF89A90B58091C00085FFB2
:107DD000FCCF9093C6002F5F3F4F30930701209355
:107DE00006014F5F5F4F4617570718F38091C00099
:107DF00085FDE5CE8091C00085FFF8CFE0CE81E023
:107E00000E94C73C67CE0E94763C803209F08CCE3F
:107E10008091C00085FFFCCFF092C6008091C00029
:107E200085FFFCCFE092C6008091C00085FFFCCFAB
:107E3000D092C6008091C00085FFFCCFC092C600E2
:107E40008091C00085FFFCCFB092C60043CEE09188
:107E50000601F091070194918091C00085FFFCCF4D
:107E60009093C6009CCF80E10E94C73C33CE0E9415
:107E7000763C0E94763C182F0E94763C112309F430
:107E800083C0113009F484C08FE00E94C73C22CE29
:107E900080910C02816080930C02E5CE80910C02EF
:107EA000816080930C0259CF809107018823880F4D
:107EB000880B8A2180930B02809106019091070123
:107EC000880F991F90930701809306018091080203
:107ED00080FF09C080910802909109020196909359
:107EE000090280930802F894F999FECF1127E091D6
:107EF0000601F0910701C8E0D1E08091080290915D
:107F00000902103091F40091570001700130D9F34B
:107F100003E000935700E89500915700017001308D
:107F2000D9F301E100935700E89509901990009169
:107F3000570001700130D9F301E000935700E89534
:107F40001395103498F011270091570001700130FB
:107F5000D9F305E000935700E895009157000170B0
:107F60000130D9F301E100935700E895329602976A
:107F700009F0C7CF103011F00296E5CF112480919F
:107F8000C00085FFB9CEBCCE8EE10E94C73CA2CD19
:0C7F900085E90E94C73C9ECDF894FFCF0D
:027F9C00800063
:040000030000780081
:00000001FF
