:100000000C9458000C9480000C9480000C94800098
:100010000C9480000C9480000C9480000C94800060
:100020000C9480000C9480000C9480000C94800050
:100030000C9480000C9480000C9480000C94800040
:100040000C94B7030C9480000C9427040C940104C6
:100050000C9480000C9480000C9480000C94800020
:100060000C9459040C948000000000002500280026
:100070002B00040404040404040402020202020229
:10008000030303030303010204081020408001025C
:1000900004081020010204081020000000080002DB
:1000A00001000003040700000000000000008705B5
:1000B00011241FBECFEFD8E0DEBFCDBF11E0A0E01E
:1000C000B1E0EEE2F3E102C005900D92AC34B1076D
:1000D000D9F722E0ACE4B1E001C01D92A63BB20723
:1000E000E1F710E0C8E5D0E004C02197FE010E94CE
:1000F0008A09C735D107C9F70E94C0050C94950934
:100100000C940000282F30910C02313208F04AC0C4
:100110008091E8018111FCCF90910B0242E0409365
:10012000E8012093E7012FEF2093E6011092E5010B
:100130003093E401EBEEF1E0A4ECB1E020E0321703
:1001400021F041914D932F5FFACF1092C30120917E
:10015000C301990F922B9093C3019091C2019130EA
:1001600061F41092C2019091C3019093BB009091F1
:10017000BC0093FDF8CF95EC01C095EE9093BC00C8
:100180009091E8019230E1F39091E6019F3F79F080
:100190008091E601803241F08091E601803331F0B8
:1001A00084E005C081E003C082E001C083E01092DA
:1001B000EA0110920C021092E901089590E0FC010E
:1001C000E656FF4F2491FC01EA57FF4F3491FC01A2
:1001D000EE58FF4FE491EE23B1F1222339F12330A1
:1001E00091F038F42130A9F0223001F584B58F7DEB
:1001F00012C0273091F02830A1F02430B9F480915A
:1002000080008F7D03C0809180008F778093800075
:100210000DC084B58F7784BD09C08091B0008F7701
:1002200003C08091B0008F7D8093B000F0E0EE0FAE
:10023000FF1FE859FF4FA591B4918FB7F894EC9147
:10024000E32BEC938FBF089508950895CF92DF922A
:10025000EF92FF920F931F93CF93DF936C017A017C
:100260008B01C0E0D0E0CE15DF0581F0D8016D91A3
:100270008D01D601ED91FC910190F081E02DC60138
:100280000995892B11F02196EECF7E01C701DF91F0
:10029000CF911F910F91FF90EF90DF90CF90089535
:1002A000FC01538D448D252F30E0842F90E0821B7C
:1002B000930B541710F0CF96089501970895FC0101
:1002C000918D828D981761F0828DDF01A80FB11D8D
:1002D0005D968C91928D9F5F9F73928F90E00895B1
:1002E0008FEF9FEF0895FC01918D828D981731F06B
:1002F000828DE80FF11D858D90E008958FEF9FEFBF
:100300000895FC01918D228D892F90E0805C9F4F94
:10031000821B91098F73992708958DE092E00E94C6
:10032000810121E0892B09F420E0822F0895FC014E
:10033000848DDF01A80FB11DA35ABF4F2C91848D6E
:1003400090E001968F739927848FA689B7892C93A3
:10035000A089B1898C91837080648C93938D848DF6
:10036000981306C00288F389E02D80818F7D8083F9
:100370000895EF92FF920F931F93CF93DF93EC01B9
:1003800081E0888F9B8D8C8D981305C0E889F98951
:10039000808185FD26C0F62E0B8D10E00F5F1F4F6C
:1003A0000F731127E02E8C8DE8120CC00FB607FCDE
:1003B000FACFE889F989808185FFF5CFCE010E94C7
:1003C0009701F1CF8B8DFE01E80FF11DE35AFF4F2E
:1003D000F0829FB7F8940B8FEA89FB898081806255
:1003E0000AC09FB7F894EE89FF896083E889F9898C
:1003F00080818370806480839FBF81E090E0DF9183
:10040000CF911F910F91FF90EF900895CF93DF93BD
:10041000EC01888D8823C9F0EA89FB89808185FDFC
:1004200005C0A889B9898C9186FD0FC00FB607FC5D
:10043000F5CF808185FFF2CFA889B9898C9185FF9E
:10044000EDCFCE010E949701E7CFDF91CF910895C4
:1004500080E090E0892B29F00E948D0181110C949D
:100460000000089585ED8093BC008091BC0084FD60
:10047000FCCF1092E801089540918C01262F30E0C6
:10048000240F311D21323105DCF42091E8012430A4
:10049000C9F4FC0180E090E0861758F430918C019B
:1004A0002191DC01A459BE4FA30FB11D2C930196DD
:1004B000F3CF80918C01680F60938C0180E00895E8
:1004C00081E0089582E008950895E091B40180915B
:1004D000B301E81730F4F0E0E45BFE4F808190E078
:1004E00008958FEF9FEF08959091B4018091B3012B
:1004F000981750F4E92FF0E0E45BFE4F208130E0E4
:100500009F5F9093B40102C02FEF3FEFC9010895A0
:100510008091B30190E02091B401821B910908956C
:10052000CF92DF92EF92FF920F931F93CF93DF93BF
:100530007C01CB018A012091E901222389F0EB01A2
:100540006B01C40ED51ECC15DD0569F06991D7018C
:10055000ED91FC910190F081E02DC7010995F3CF59
:10056000642F0E943C02C801DF91CF911F910F912F
:10057000FF90EF90DF90CF900895CF93DF931F927D
:10058000CDB7DEB769832091E9012223D1F0209114
:100590000C02203240F021E030E0FC013383228362
:1005A00080E090E015C08091EA01E82FF0E0E5518D
:1005B000FE4F998190838F5F8093EA0180930C02B4
:1005C00005C061E0CE0101960E943C0281E090E00E
:1005D0000F90DF91CF910895089580E090E0089505
:1005E000009769F0FC0101900020E9F73197AF0115
:1005F000481B590BBC018DE092E00C94260180E071
:1006000090E008958F929F92AF92BF920F931F93A5
:10061000CF93DF93CDB7DEB7A1970FB6F894DEBFC7
:100620000FBECDBF19A2423008F44AE08E010F5D23
:100630001F4F842E912CA12CB12CA50194010E9456
:100640006809E62FB901CA0101501109EA3014F412
:10065000E05D01C0E95CD801EC93232B242B252B12
:1006600061F7C8010E94F002A1960FB6F894DEBFB0
:100670000FBECDBFDF91CF911F910F91BF90AF9073
:100680009F908F900895CF93DF930E94F002EC012A
:1006900084E291E00E94F0028C0F9D1FDF91CF91C8
:1006A0000895CF9391E09093E9019CE590930B021C
:1006B0001092EA0110920C02682F8AEA92E00E94DE
:1006C000BD0281E00E9482008091E8018111FCCF8F
:1006D00081E08093E8018093E7019FEF9093E6012A
:1006E0001092E5011092E4018093C3018091C3014F
:1006F000886B8093C3018091C201813061F41092B4
:10070000C2018091C3018093BB008091BC0083FD36
:10071000F8CF85EC01C085EE8093BC008091E801A4
:100720008130E1F38091E501811103C0C091E501C1
:1007300001C0C1E0E4ECF1E0ACE4B1E080E08C1792
:1007400021F091919D938F5FFACF1092B401C093E5
:10075000B30180E09091B401C91729F08AEA92E0D0
:100760000E947402F7CFCF9108950E9490091F92C2
:100770000F920FB60F9211242F933F938F939F9355
:10078000AF93BF938091BE019091BF01A091C00132
:10079000B091C1013091BD0123E0230F2D3720F42A
:1007A0000196A11DB11D05C026E8230F0296A11DCB
:1007B000B11D2093BD018093BE019093BF01A09312
:1007C000C001B093C1018091B9019091BA01A0918B
:1007D000BB01B091BC010196A11DB11D8093B9016F
:1007E0009093BA01A093BB01B093BC01BF91AF91AC
:1007F0009F918F913F912F910F900FBE0F901F905F
:1008000018951F920F920FB60F9211242F933F93BA
:100810004F935F936F937F938F939F93AF93BF9308
:10082000EF93FF938DE092E00E949701FF91EF918B
:10083000BF91AF919F918F917F916F915F914F91F8
:100840003F912F910F900FBE0F901F9018951F9200
:100850000F920FB60F9211242F938F939F93EF93C4
:10086000FF93E0911D02F0911E028081E09123022E
:10087000F091240282FD12C09081809126028F5F48
:100880008F7320912702821751F0E0912602F0E049
:10089000E35FFD4F958F8093260201C08081FF9119
:1008A000EF919F918F912F910F900FBE0F901F90FE
:1008B00018951F920F920FB60F9211242F933F930A
:1008C0004F935F936F937F938F939F93AF93BF9358
:1008D000EF93FF938091B900887F803609F49CC024
:1008E00068F5883209F45BC090F4803109F454C093
:1008F00038F4882309F4F6C0883009F44DC0F6C0F6
:10090000883109F44CC0803209F45DC0EFC08034F6
:1009100009F468C048F4803309F455C0883309F0FD
:10092000E5C08093E601D8C0803509F44FC0883512
:1009300009F45DC0883409F0D9C0D6C0883909F4FB
:10094000C7C0A8F4883709F467C038F4883609F4BA
:1009500063C0803709F460C0C9C0883809F4B8C0E2
:10096000803909F45FC0803809F0C0C05BC0803BAB
:1009700009F486C038F4803A09F466C0883A09F46C
:100980007FC0B4C0803C09F4A7C0883C09F4A4C06F
:10099000883B09F48AC0AAC08091C30110C090911D
:1009A000E5018091E401981770F5E091E50181E09F
:1009B0008E0F8093E501F0E0EC53FE4F8081809331
:1009C000BB0085EC86C08093E6018EC0E091E50116
:1009D00081E08E0F8093E5018091BB00F0E0EC5345
:1009E000FE4F80839091E5018091E4016EC0E0911B
:1009F000E50181E08E0F8093E5018091BB00F0E07E
:100A0000EC53FE4F80838091E70181116DC081E03E
:100A10008093C20184EA61C083E08093E801109270
:100A2000AE01CFCF8091AE01803208F051C0E0918D
:100A3000AE0181E08E0F8093AE018091BB00F0E0AB
:100A4000E257FE4F8083BDCF85EC8093BC001092AF
:100A5000E8018091AE01803230F4E091AE01F0E027
:100A6000E257FE4F10826091AE0170E0E091AF015D
:100A7000F091B0018EE891E009951092AE0136C078
:100A800084E08093E80110928D0110928C01E09136
:100A9000B101F091B201099580918C01811105C0DD
:100AA00081E080938C0110926C01E0918D0181E0D6
:100AB0008E0F80938D01F0E0E459FE4F808180938A
:100AC000BB0090918D0180918C01981708F479CF2B
:100AD00085E88093BC000AC085EC8093BC0010922E
:100AE000E80104C01092E6010E943202FF91EF91EA
:100AF000BF91AF919F918F917F916F915F914F9136
:100B00003F912F910F900FBE0F901F901895EDE021
:100B1000F2E01382128288EE93E0A0E0B0E08483DA
:100B20009583A683B78324E031E03183208325ECCD
:100B300030E03587248724EC30E03787268720ECA7
:100B400030E0318B208B21EC30E0338B228B22EC98
:100B500030E0358B248B26EC30E0378B268B118EE2
:100B6000128E138E148EEAEAF2E0138212828483CC
:100B70009583A683B78386E191E09183808308956E
:100B8000789484B5826084BD84B5816084BD85B568
:100B9000826085BD85B5816085BD80916E00816074
:100BA00080936E001092810080918100826080931A
:100BB000810080918100816080938100809180001C
:100BC0008160809380008091B10084608093B10047
:100BD0008091B00081608093B00080917A00846041
:100BE00080937A0080917A00826080937A0080916D
:100BF0007A00816080937A0080917A008068809387
:100C00007A001092C100E0911D02F0911E0282E074
:100C10008083E0911902F0911A021082E0911B0288
:100C2000F0911C0280E1808310922502E091210264
:100C3000F091220286E08083E0911F02F091200271
:100C4000808180618083E0911F02F0912002808189
:100C500088608083E0911F02F0912002808180688B
:100C60008083E0911F02F091200280818F7D80833C
:100C700087E291E00E944303FF24F39428E4E22EEC
:100C800035E4D32EC4E2D1E005E211E01092B401C4
:100C90001092B3011092EA0110920C021092E80136
:100CA000F092E7011092C20182E10E94DE0083E12E
:100CB0000E94DE008091B9008E7F8093B900809100
:100CC000B9008D7F8093B900E092B800D092BC004B
:100CD000D093B201C093B1011093B0010093AF0162
:100CE0008FE00E9451038B3B81F0682F70E080E021
:100CF00090E040E10E94020384E291E00E94F00251
:100D000083E391E00E944303C1CF40E16BEB70E0CD
:100D100080E090E00E94020384E291E00E94F002F1
:100D200081E08093E9018CE580930B021092EA0147
:100D300010920C0260E28AEA92E00E94BD0260EF2B
:100D40008AEA92E00E94BD0281E00E9482008AE36A
:100D500091E00E9443038FB7F8948090BE01909079
:100D6000BF01A090C001B090C1018FBF8091B501BB
:100D70009091B601A091B701B091B801A50194017D
:100D8000281B390B4A0B5B0B2832310541055105F5
:100D900008F4D1C08AE20E9451038092B50190927A
:100DA000B601A092B701B092B801C82ED12CE12CA7
:100DB000F12CFE2CED2CDC2CCC2489E20E9451037A
:100DC000C82AFE2CED2CDC2CCC2488E20E94510396
:100DD000A7019601282BCA01B9010E94410820E011
:100DE00030E040E859E30E94F6086B017C014B01BA
:100DF0005C019B01AC010E946309882319F08FE319
:100E000091E01AC026013701E89477F82FEF3FEF01
:100E10004FE75FE7C301B2010E94630981110FC070
:100E20002FEF3FEF4FE75FE7C301B2010E940B08CE
:100E300018162CF483E491E00E94F00278C02FEFA2
:100E40003FEF4FE75FE4C701B6010E94F1081816B3
:100E50001CF487E491E0F0CF2FEF3FEF4FE75FEC1A
:100E6000C701B6010E940B0887FDF3CF20E030E0F8
:100E7000A901C701B6010E940B0887FF0BC06DE2F4
:100E80008DE092E00E94B90146015701B7FAB09493
:100E9000B7F8B0942AE037ED43EA5BE3C501B4014B
:100EA0000E949F074B015C010E9410086B017C01AE
:100EB0000E943F089B01AC01C501B4010E949E073E
:100EC0004B015C014AE0C701B6010E9402036EE2D9
:100ED0008DE092E00E94B90120E030E040E251E470
:100EE000C501B4010E94F6084B015C010E94100884
:100EF0006B01E12CF12C4AE0C701B6010E9402030C
:100F0000C701B6010E943F089B01AC01C501B401B5
:100F10000E949E0720E030E040E251E40E94F60883
:100F20000E94100880E090E04AE00E94020384E200
:100F300091E00E94F0020E9428020DCF5058BB277A
:100F4000AA270E94B6070C94B7080E94A90838F097
:100F50000E94B00820F039F49F3F19F426F40C9455
:100F6000A6080EF4E095E7FB0C94A008E92F0E9478
:100F7000C80858F3BA17620773078407950720F06B
:100F800079F4A6F50C94EA080EF4E0950B2EBA2F2E
:100F9000A02D0B01B90190010C01CA01A00111247F
:100FA000FF27591B99F0593F50F4503E68F11A162B
:100FB000F040A22F232F342F4427585FF3CF4695BC
:100FC00037952795A795F0405395C9F77EF41F16DE
:100FD000BA0B620B730B840BBAF09150A1F0FF0FA8
:100FE000BB1F661F771F881FC2F70EC0BA0F621F94
:100FF000731F841F48F4879577956795B795F79584
:101000009E3F08F0B0CF9395880F08F09927EE0F18
:101010009795879508950E947C0808F481E00895CB
:101020000E94D00888F09F5798F0B92F9927B751A0
:10103000B0F0E1F0660F771F881F991F1AF0BA957C
:10104000C9F714C0B13091F00E94EA08B1E00895E8
:101050000C94EA08672F782F8827B85F39F0B93FDA
:10106000CCF3869577956795B395D9F73EF490952F
:101070008095709561957F4F8F4F9F4F0895E894AD
:1010800009C097FB3EF490958095709561957F4FD0
:101090008F4F9F4F9923A9F0F92F96E9BB2793957E
:1010A000F695879577956795B795F111F8CFFAF48E
:1010B000BB0F11F460FF1BC06F5F7F4F8F4F9F4FBF
:1010C00016C0882311F096E911C0772321F09EE81D
:1010D000872F762F05C0662371F096E8862F70E083
:1010E00060E02AF09A95660F771F881FDAF7880F5D
:1010F0009695879597F90895990F0008550FAA0BB3
:10110000E0E8FEEF16161706E807F907C0F012161A
:101110001306E407F50798F0621B730B840B950B1D
:1011200039F40A2661F0232B242B252B21F4089572
:101130000A2609F4A140A6958FEF811D811D08950F
:1011400097F99F6780E870E060E008959FEF80EC7A
:10115000089500240A94161617061806090608951D
:1011600000240A9412161306140605060895092E83
:101170000394000C11F4882352F0BB0F40F4BF2BF2
:1011800011F460FF04C06F5F7F4F8F4F9F4F089532
:1011900057FD9058440F551F59F05F3F71F0479528
:1011A000880F97FB991F61F09F3F79F0879508950D
:1011B000121613061406551FF2CF4695F1DF08C02C
:1011C000161617061806991FF1CF86957105610549
:1011D00008940895E894BB2766277727CB0197F9F1
:1011E00008950E947C0808F48FEF08950E94090971
:1011F0000C94B7080E94A90838F00E94B00820F0AB
:10120000952311F00C94A0080C94A60811240C94BA
:10121000EB080E94C80870F3959FC1F3950F50E04A
:10122000551F629FF001729FBB27F00DB11D639F98
:10123000AA27F00DB11DAA1F649F6627B00DA11D3E
:10124000661F829F2227B00DA11D621F739FB00DE4
:10125000A11D621F839FA00D611D221F749F332754
:10126000A00D611D231F849F600D211D822F762FED
:101270006A2F11249F5750409AF0F1F088234AF0CA
:10128000EE0FFF1FBB1F661F771F881F9150504036
:10129000A9F79E3F510580F00C94A0080C94EB0830
:1012A0005F3FE4F3983ED4F3869577956795B795BD
:1012B000F795E7959F5FC1F7FE2B880F911D9695D7
:1012C000879597F908950E947C08880B990B0895DB
:1012D000A1E21A2EAA1BBB1BFD010DC0AA1FBB1F3A
:1012E000EE1FFF1FA217B307E407F50720F0A21BAC
:1012F000B30BE40BF50B661F771F881F991F1A9419
:1013000069F760957095809590959B01AC01BD0142
:10131000CF010895EE0FFF1F0590F491E02D099481
:0E13200081E090E0F8940C949509F894FFCFCA
:10132E0000000000B90126015001060281015F0193
:10133E00730100000000BD029002ED0264028802FB
:10134E00740265020D0A00496E69742053656E734E
:10135E006F72006661696C656400646F6E65006E25
:0C136E00616E00696E66006F766600001C
:107E0000112484B714BE81FFF0D085E080938100F7
:107E100082E08093C00088E18093C10086E0809377
:107E2000C20080E18093C4008EE0C9D0259A86E02C
:107E300020E33CEF91E0309385002093840096BBD3
:107E4000B09BFECF1D9AA8958150A9F7CC24DD24C4
:107E500088248394B5E0AB2EA1E19A2EF3E0BF2EE7
:107E6000A2D0813461F49FD0082FAFD0023811F036
:107E7000013811F484E001C083E08DD089C08234E0
:107E800011F484E103C0853419F485E0A6D080C0E4
:107E9000853579F488D0E82EFF2485D0082F10E0AE
:107EA000102F00270E291F29000F111F8ED06801E7
:107EB0006FC0863521F484E090D080E0DECF843638
:107EC00009F040C070D06FD0082F6DD080E0C81688
:107ED00080E7D80618F4F601B7BEE895C0E0D1E017
:107EE00062D089930C17E1F7F0E0CF16F0E7DF06D8
:107EF00018F0F601B7BEE89568D007B600FCFDCFD4
:107F0000A601A0E0B1E02C9130E011968C91119780
:107F100090E0982F8827822B932B1296FA010C0160
:107F200087BEE89511244E5F5F4FF1E0A038BF0790
:107F300051F7F601A7BEE89507B600FCFDCF97BE46
:107F4000E89526C08437B1F42ED02DD0F82E2BD052
:107F50003CD0F601EF2C8F010F5F1F4F84911BD097
:107F6000EA94F801C1F70894C11CD11CFA94CF0C13
:107F7000D11C0EC0853739F428D08EE10CD085E9AC
:107F80000AD08FE07ACF813511F488E018D01DD067
:107F900080E101D065CF982F8091C00085FFFCCF94
:107FA0009093C60008958091C00087FFFCCF809118
:107FB000C00084FD01C0A8958091C6000895E0E648
:107FC000F0E098E1908380830895EDDF803219F02E
:107FD00088E0F5DFFFCF84E1DECF1F93182FE3DFCA
:107FE0001150E9F7F2DF1F91089580E0E8DFEE27F6
:047FF000FF270994CA
:027FFE00040479
:0400000300007E007B
:00000001FF
