:100000000C9499040C94BD060C9496060C94C104AF
:100010000C94C1040C94C1040C94C1040C94C1044C
:100020000C94C1040C94C1040C94C1040C94C1043C
:100030000C94C1040C94C1040C94C1040C94C1042C
:100040000C94BE0D0C94C1040C940A070C94E406A5
:100050000C94C1040C94C1040C94C1040C94C1040C
:100060000C944E090C94C1040000000024002700E9
:100070002A0001B202FFFF0190040923A135016AA1
:10008000020600016008000000000000000000609F
:100090000440000000016202000000600400400013
:1000A00000037B034CCD6C03AB033656760068042B
:1000B00002CB47A202180400058BC1010C0400000A
:1000C0000000037F060CC92C9797970389032646E7
:1000D00066006C022000024004000000000244049C
:1000E0000000000002480400000000024C04000070
:1000F0000000025004000000000254040000000050
:1001000002580400000000025C040000000002BC71
:10011000040000000001EC0400004000037F060C16
:10012000C92C9797970402030D355D040904872DA8
:10013000353D00A3010000000001078601FE0741D4
:1001400005F120283038077E01300746019A07471D
:1001500004F1283038076C04F12830380216020008
:1001600001FB00003E000B0036000100020003000E
:100170000000650054FFEF0000FA80000B128200BF
:10018000010002000000000000000000000000006C
:100190000000280000FFFF4581FFFFFA7200000009
:1001A00000000003E80000000100017FFFFFFE8067
:1001B00001001B0000000000000000000000000023
:1001C00000003E03304000000002CAE3093E800008
:1001D000002000000000000000400000006000005F
:1001E0000041FF000000000B2A000016550000210E
:1001F00082FD872650FD800000001F000000058062
:1002000000000000000001000000020000000300E8
:1002100000400000000000046F0002653200005E34
:10022000C0400000000000000000000000000000CE
:1002300000FB8C6F5DFD5D08D9007C733B006C1288
:10024000CC3200139D3200D0D632000800400001AD
:10025000F4FFE68079020000000000D0D6000027FD
:1002600010FB000000400000000000000000000043
:10027000000000000100000000000001000100007B
:10028000000000FA36FFBC308E0005FBF0FFD95BA2
:10029000C8FFD09ABE000010A9FFF41EB200CEBB6A
:1002A000F70000000100000004000200020200004C
:1002B0000CFFC280000001800000CF8000400000E1
:1002C0000000000001000000000000060000000027
:1002D000140000000000000000000000000000000A
:1002E000000000000000000000000000000000000E
:1002F00000000000000000000000000000000000FE
:100300000000000000033F68B6793528BCC67ED1E6
:100310006C80000000400000000000B26A00000095
:1003200000000000000000000000003FF00000009E
:10033000300000000000000000000000000000008D
:1003400000000000000000000000000000000000AD
:10035000000000254D002F706D000005AE000C025E
:10036000D00000000000650054FFEF000000000016
:1003700000000001000044000000000C000000012B
:1003800000000000000065000000540000FFEF00C6
:10039000000000000000000000000000000000005D
:1003A000004000000000000000000000000000000D
:1003B00000400000000000000000000000000000FD
:1003C000000000000100000002000000000000002A
:1003D000000000000000000000000000000000001D
:1003E000000000000000000000000000000000000D
:1003F00000001B00000000000000000000000000E2
:1004000000000000000000000000000000000000EC
:10041000000000000000000000000000004000009C
:1004200000001B00000000000000000000000000B1
:1004300000000000000000000000000000000000BC
:1004400000000000000000000000000000000000AC
:10045000000000000000000000000000000000009C
:1004600000D8DCBAA2F1DEB2B8B4A88191F74A9004
:100470007F916AF3F9DBA8F9B0BAA080F2CE81F3DC
:10048000C2F1C1F2C3F3CCA2B280F1C6D880BAA740
:10049000DFDFDFF2A7C3CBC5B6F087A29424487094
:1004A0003C95406834589B78A2F183922D557DD8B5
:1004B000B1B4B8A1D09180F270F370F27C80A8F151
:1004C00001B09887D943D886C988BAA1F20EB897E7
:1004D00080F1A9DFDFDFAADFDFDFF2AAC5CDC7A980
:1004E0000CC92C97979797F1A989264666B0B4BA9C
:1004F00080ACDEF2CAF1B28C02A9B69800890E1661
:100500001EB8A9B4992C547CB08AA896365676F1B8
:10051000B9AFB4B083C0B8A89711B18F98B9AFF094
:10052000240844106418F1A329557DAF83B593AF17
:10053000F0002850F1A3869F61A6DADEDFD9FAA386
:100540008696DB31A6D9F8DFBAA68FC2C5C7B28CB2
:10055000C1B8A2DFDFDFA3DFDFDFD8D8F1B8A8B2F0
:1005600086B4980D355DB8AA98B0872D353DB2B6E2
:10057000BAAF8C96198F9FA70E161EB49AB8AA8789
:100580002C547CB9A3DEDFDFA3B180F2C4CDC9F166
:10059000B8A9B499830D355D89B9A32D557DB5935F
:1005A000A30E161EA92C547CB8B4B0F19783A811E1
:1005B00084A50998A383F0DA240844106418D8F1BC
:1005C000A529557DA58595021A2E3A565A4048F917
:1005D000F3A3D9F8F098832408441064189782A8EC
:1005E000F111F098A2240844106418DAF3DED883DD
:1005F000A59401D9A302F1A2C3C5C7D8F18492A2E0
:100600004DDA2AD84869D92AD86855DA32D85071D3
:10061000D932D8705DDA3AD85879D93AD87893A3D4
:100620004DDA2AD84869D92AD86855DA32D85071B3
:10063000D932D8705DDA3AD85879D93AD878A88AB8
:100640009AF02850789EF38818F19F1D98A8D90831
:10065000D8C89F129EF315A8DA1210D8F1AFC89728
:100660008734B5B994A421F3D922D8F22DF3D92A2D
:10067000D8F235F3D932D881A4606061D961D86CE1
:100680006869D969D8747071D971D8B1A384193DDA
:100690005DA3831A3E5E931030811011B8B0AF8F06
:1006A00094F2DA3ED8B49AA88729DAF8D8879A352E
:1006B000DAF8D8879A3DDAF8D8B1B9A49885022E2D
:1006C00056A581000C14A397B08AF12DD928D84DD6
:1006D000D948D86DD968D8B1840DDA0ED8A329834A
:1006E000DA2C0ED8A3844983DA2C4C0ED8B8B0A8E3
:1006F0008A9AF520AADADFD8A840AAD0DADED8A8EC
:1007000060AADAD0DFD8F19786A8319B069907ABAB
:100710009728889BF00C201440B8B0B4A88C9CF0AB
:10072000042851791D301438B282ABD0982C505027
:1007300078789BF11AB0F08A9CA82951798B2951BD
:10074000798A2470598B2058718A4469388B3940D2
:10075000688A6448318B304960A588200971584403
:1007600068113964493019F1AC002C547CF08CA824
:1007700004285078F1889726A85998AC8C02264610
:1007800066F0899CA82951792470594469386448D5
:1007900031A98809205970AB11384069A81931482E
:1007A000608CA83C415C207C00F187981986A86E7B
:1007B000767EA999882D557D9EB9A38A228A6E8A54
:1007C000568A5E9FB183062646660E2E4E6E9DB8F3
:1007D000AD002C547CF2B18CB499B9A32D557D8118
:1007E00091AC38AD3AB58391AC2DD928D84DD948C4
:1007F000D86DD968D88C9DAE29D904AED851D9040A
:10080000AED879D904D881F39DAD008DAE1981ADF4
:10081000D901D8F2AEDA26D88E912983A7D9ADAD09
:10082000ADADF32AD8D8F1B0AC89913E5E76F3AC89
:100830002E2EF1B18C5A9CAC2C2828289CAC301858
:10084000A8988128343C9724A728343C9C24F2B0F3
:1008500089AC912C4C6C8A9B2DD9D8D851D9D8D839
:1008600079D9D8D8F19E88A331DAD8D8912DD92852
:10087000D84DD948D86DD968D8B18393353D8025F6
:10088000DAD8D88569DAD8D8B49381A328343CF370
:10089000AB8BF8A391B609B4D9ABDEFAB0879CB99B
:1008A000A3DDF1A3A3A3A395F1A3A3A39DF1A3A308
:1008B000A3A3F2A3B49080F2A3A3A3A3A3A3A3A38F
:1008C000A3A3B2A3A3A3A3A3A3B087B599F1A3A3A2
:1008D000A398F1A3A3A3A397A3A3A3A3F39BA3A369
:1008E000DCB9A7F1262626D8D8FF00000000250095
:1008F00028002B000404040404040404020202027D
:1009000002020303030303030102040810204080D2
:100910000102040810200102040810200000000851
:1009200000020100000304070000000000000000B6
:100930000E1811241FBECFEFD8E0DEBFCDBF11E0EF
:10094000A0E0B1E0E6E6FAE302C005900D92A03423
:10095000B107D9F723E0A0E4B1E001C01D92A53FA3
:10096000B207E1F714E0C9E9D4E004C02197FE0121
:100970000E94F21AC839D107C9F70E94080E0C94D8
:10098000311D0C9400000895CF92DF92EF92FF92F8
:100990000F931F93CF93DF936C017A018B01C0E01B
:1009A000D0E0CE15DF0581F0D8016D918D01D60123
:1009B000ED91FC910190F081E02DC6010995892B04
:1009C00011F02196EECF7E01C701DF91CF911F91EB
:1009D0000F91FF90EF90DF90CF900895FC01538D21
:1009E000448D252F30E0842F90E0821B930B541709
:1009F00010F0CF96089501970895FC01918D828D96
:100A0000981761F0828DDF01A80FB11D5D968C9162
:100A1000928D9F5F9F73928F90E008958FEF9FEF6D
:100A20000895FC01918D828D981731F0828DE80F29
:100A3000F11D858D90E008958FEF9FEF0895FC01E3
:100A4000918D228D892F90E0805C9F4F821B9109B0
:100A50008F739927089582E093E00E941F0521E09B
:100A6000892B09F420E0822F0895FC01848DDF0199
:100A7000A80FB11DA35ABF4F2C91848D90E0019611
:100A80008F739927848FA689B7892C93A089B18900
:100A90008C91837080648C93938D848D981306C0A1
:100AA0000288F389E02D80818F7D80830895EF9205
:100AB000FF920F931F93CF93DF93EC0181E0888F18
:100AC0009B8D8C8D981305C0E889F989808185FDFF
:100AD00026C0F62E0B8D10E00F5F1F4F0F731127EE
:100AE000E02E8C8DE8120CC00FB607FCFACFE88917
:100AF000F989808185FFF5CFCE010E943505F1CFC0
:100B00008B8DFE01E80FF11DE35AFF4FF0829FB776
:100B1000F8940B8FEA89FB89808180620AC09FB7B5
:100B2000F894EE89FF896083E889F9898081837070
:100B3000806480839FBF81E090E0DF91CF911F911F
:100B40000F91FF90EF900895CF93DF93EC01888D84
:100B50008823C9F0EA89FB89808185FD05C0A889C1
:100B6000B9898C9186FD0FC00FB607FCF5CF808147
:100B700085FFF2CFA889B9898C9185FFEDCFCE0191
:100B80000E943505E7CFDF91CF91089580E090E096
:100B9000892B29F00E942B0581110C9400000895E7
:100BA0008091440190E020914501821B91090895B4
:100BB00085ED8093BC008091BC0084FDFCCF109239
:100BC000DD02089540917002262F30E0240F311D80
:100BD00021323105DCF42091DD022430C9F4FC011E
:100BE00080E090E0861758F4309170022191DC018A
:100BF000A05BBD4FA30FB11D2C930196F3CF809145
:100C00007002680F6093700280E0089581E008959B
:100C100082E00895089508950895E0914501809136
:100C20004401E81730F4F0E0ED56FD4F808190E08C
:100C300008958FEF9FEF08959091450180914401B1
:100C4000981750F4E92FF0E0ED56FD4F208130E089
:100C50009F5F9093450102C02FEF3FEFC9010895B8
:100C6000CF92DF92EF92FF920F931F93CF93DF9378
:100C70007C01CB018A012091DE02222389F0EB0165
:100C80006B01C40ED51ECC15DD0569F06991D70145
:100C9000ED91FC910190F081E02DC7010995F3CF12
:100CA000642F0E94E205C801DF91CF911F910F913F
:100CB000FF90EF90DF90CF900895CF93DF931F9236
:100CC000CDB7DEB769832091DE022223D1F02091D7
:100CD0000103203240F021E030E0FC013383228325
:100CE00080E090E015C08091DF02E82FF0E0E05254
:100CF000FD4F998190838F5F8093DF028093010382
:100D000005C061E0CE0101960E94E20581E090E01D
:100D10000F90DF91CF910895089580E090E00895BD
:100D200081E08093460108950E94DF1C1F920F927C
:100D30000FB60F9211242F933F934F935F936F93AE
:100D40007F938F939F93AF93BF93EF93FF93E09124
:100D50000201F09103010995FF91EF91BF91AF91CD
:100D60009F918F917F916F915F914F913F912F91C3
:100D70000F900FBE0F901F9018951F920F920FB6F5
:100D80000F9211242F933F934F935F936F937F9311
:100D90008F939F93AF93BF93EF93FF93E0910001E5
:100DA000F09101010995FF91EF91BF91AF919F9152
:100DB0008F917F916F915F914F913F912F910F9004
:100DC0000FBE0F901F9018951F920F920FB60F92A3
:100DD00011242F933F934F935F936F937F938F9340
:100DE0009F93AF93BF93EF93FF9382E093E00E94B2
:100DF0003505FF91EF91BF91AF919F918F917F91B9
:100E00006F915F914F913F912F910F900FBE0F9077
:100E10001F9018951F920F920FB60F9211242F93C7
:100E20008F939F93EF93FF93E0911203F09113033D
:100E30008081E0911803F091190382FD12C0908126
:100E400080911B038F5F8F7320911C03821751F0D9
:100E5000E0911B03F0E0EE5FFC4F958F80931B0346
:100E600001C08081FF91EF919F918F912F910F9001
:100E70000FBE0F901F901895FF920F931F93CF9363
:100E8000DF93142FF22E032F91E09093DE028093D4
:100E900000031092DF02109201038FE993E00E9499
:100EA0005D06CF2DD02FCE01810F911D8C01C01773
:100EB000D10731F069918FE993E00E945D06F7CF89
:100EC00081E00E947C0A91E0811190E0892FDF91FE
:100ED000CF911F910F91FF9008951F93CF93DF93B0
:100EE00000D0CDB7DEB75A83498391E09093DE02FC
:100EF000809300031092DF02109201038FE993E0C8
:100F00000E945D0619816A818FE993E00E945D0667
:100F1000612F8FE993E00E945D0681E00E947C0AC8
:100F200091E0811190E0892F0F900F90DF91CF9188
:100F30001F910895CF93DF931F92CDB7DEB74983FA
:100F40009E012F5F3F4F41E00E943C070F90DF91D1
:100F5000CF9108952F923F924F925F926F927F921E
:100F60008F929F92AF92BF92CF92DF92EF92FF92B9
:100F70000F931F93CF93DF93CDB7DEB728970FB6AC
:100F8000F894DEBF0FBECDBFD82EC62E4F834901C9
:100F90008FB7F8944090B3025090B4026090B502BD
:100FA0007090B6028FBF2D2C220CE12C1886FF24E6
:100FB000F394A42EB12C33243A94980140E050E0ED
:100FC0002B833C834D835E833F81E31608F08CC006
:100FD000F092DE02D09200031092DF021092010321
:100FE0006C2D8FE993E00E945D0681E00E947C0AEF
:100FF000F092DE02D09200031092DF021092010301
:101000008091DD028111FCCFC5018E1991098132D9
:10101000910514F080E290E0813208F080E2F092D5
:10102000DD02F092DC023092DB021092DA029FEFD6
:10103000980F9093D902F092B8029091B802922939
:101040009093B8029091B702913071F41092B70268
:101050009091B8029093BB009091BC0093FDF8CFA3
:1010600045EC4093BC0003C055EE5093BC009091FA
:10107000DD029130E1F39091DA02981710F480913B
:10108000DA02E9EBF2E0A3E9B2E090E0981721F090
:1010900021912D939F5FFACF1092450190934401C7
:1010A0009091440180914501981709F456C00115AB
:1010B000110509F43FC02FB7F8948091B3029091C5
:1010C000B402A091B502B091B6022FBF8419950960
:1010D000A609B7092B813C814D815E818217930758
:1010E000A407B50738F139C001151105E1F12FB793
:1010F000F8948091B3029091B402A091B502B0919E
:10110000B6022FBF84199509A609B70920E030E07F
:1011100080179107A207B30730F14F81242F30E0E9
:101120005885852F550F990B82179307E4F48FEF9D
:10113000888719C0D401E885AE0FB11DE7FDBA95C7
:10114000BA83A9838FE993E00E941C06A981BA8122
:101150008C93B885BF5FB887A3CF8F81813208F0A9
:1011600080E2E80E31CF888528960FB6F894DEBF6E
:101170000FBECDBFDF91CF911F910F91FF90EF90E8
:10118000DF90CF90BF90AF909F908F907F906F90A7
:101190005F904F903F902F900895CF92DF92EF9203
:1011A000FF920F931F93CF93DF931F92CDB7DEB7BC
:1011B000F82EE62ED42EC22E08EE13E09E012F5FED
:1011C0003F4F41E00E94AA07898141E050E001C001
:1011D000440FDA94EAF7CC2011F0482B02C0409576
:1011E000482349836E2D8F2D0E949A070F90DF911F
:1011F000CF911F910F91FF90EF90DF90CF900895C6
:10120000BF92CF92DF92EF92FF920F931F93CF93F3
:10121000DF931F92CDB7DEB7F82EE62EC42EB22E86
:10122000D02E08EE13E09E012F5F3F4F41E00E9459
:10123000AA07882339F12C2D30E02B1931092F5FB3
:101240003F4F81E090E002C0880F991FBA94E2F707
:101250000197022E01C0880F0A94EAF74D2D50E045
:10126000BA0102C0660F771F2A95E2F7482F409512
:10127000998149238623482B49836E2D8F2D0E9407
:101280009A0701C080E00F90DF91CF911F910F91DD
:10129000FF90EF90DF90CF90BF9008951F920F9234
:1012A0000FB60F9211242F933F934F935F936F9339
:1012B0007F938F939F93AF93BF93EF93FF9380910F
:1012C000B900887F803609F49CC068F5883209F43B
:1012D0005BC090F4803109F454C038F4882309F4D9
:1012E000F6C0883009F44DC0F6C0883109F44CC00E
:1012F000803209F45DC0EFC0803409F468C048F45E
:10130000803309F455C0883309F0E5C08093DB02CF
:10131000D8C0803509F44FC0883509F45DC08834E1
:1013200009F0D9C0D6C0883909F4C7C0A8F48837F5
:1013300009F467C038F4883609F463C0803709F4CB
:1013400060C0C9C0883809F4B8C0803909F45FC0EA
:10135000803809F0C0C05BC0803B09F486C038F417
:10136000803A09F466C0883A09F47FC0B4C0803C72
:1013700009F4A7C0883C09F4A4C0883B09F48AC0DA
:10138000AAC08091B80210C09091DA028091D9026F
:10139000981770F5E091DA0281E08E0F8093DA02FF
:1013A000F0E0E754FD4F80818093BB0085EC86C060
:1013B0008093DB028EC0E091DA0281E08E0F809391
:1013C000DA028091BB00F0E0E754FD4F80839091FA
:1013D000DA028091D9026EC0E091DA0281E08E0FCC
:1013E0008093DA028091BB00F0E0E754FD4F8083E8
:1013F0008091DC0281116DC081E08093B70284EAA4
:1014000061C083E08093DD0210929202CFCF809181
:101410009202803208F051C0E091920281E08E0F7A
:10142000809392028091BB00F0E0EE58FD4F8083E4
:10143000BDCF85EC8093BC001092DD0280919202BA
:10144000803230F4E0919202F0E0EE58FD4F1082CD
:101450006091920270E0E0914001F091410182E7D9
:1014600092E009951092920236C084E08093DD02EA
:101470001092710210927002E0914201F0914301CA
:10148000099580917002811105C081E080937002FE
:1014900010925002E091710281E08E0F80937102F0
:1014A000F0E0E05BFD4F80818093BB009091710282
:1014B00080917002981708F479CF85E88093BC007A
:1014C0000AC085EC8093BC001092DD0204C010922B
:1014D000DB020E94D805FF91EF91BF91AF919F91E0
:1014E0008F917F916F915F914F913F912F910F90CD
:1014F0000FBE0F901F901895282F309101033132A5
:1015000008F04AC08091DD028111FCCF9091000368
:1015100042E04093DD022093DC022FEF2093DB02B8
:101520001092DA023093D902E0EEF2E0A9EBB2E0D9
:1015300020E0321721F041914D932F5FFACF1092A6
:10154000B8022091B802990F922B9093B802909113
:10155000B702913061F41092B7029091B802909363
:10156000BB009091BC0093FDF8CF95EC01C095EEC7
:101570009093BC009091DD029230E1F39091DB02F8
:101580009F3F79F08091DB02803241F08091DB0255
:10159000803331F084E005C081E003C082E001C007
:1015A00083E01092DF02109201031092DE02089590
:1015B000482F6EE68091D9030C949A072F923F92A0
:1015C0004F925F926F927F928F929F92AF92BF9253
:1015D000CF92DF92EF92FF920F931F93CF93DF93FF
:1015E0003C015B01342E522E202E4F716DE680910E
:1015F000D9030E949A07852D0E94D80A80E190E0C5
:101600000E94F81A6C01002331F080E190E00E9402
:10161000F81A7C0102C0E12CF12CC0E0D0E0CA1520
:10162000DB0508F06CC0CE014096A816B90618F488
:101630004A2C4C1A02C080E1482E842D90E020E014
:1016400031E0251931092817390714F4452C419444
:10165000222071F0D70180E090E0841560F4FE0153
:10166000E80FF91FE60DF71DE491ED930196F5CF14
:101670007301EC0EFD1E9701442D6FE68091D90396
:101680000E943C07842C912CC114D10419F1432DE4
:101690004F716DE68091D9030E949A07852D0E94B3
:1016A000D80A08EE13E09601442D6FE68091D90325
:1016B0000E94AA07A401B601C7010E94E41C892B5D
:1016C00049F0C6010E94901B222011F1C7010E941F
:1016D000901B1EC0C80DD91D540CCA15DB0508F09F
:1016E0009ECF511001C03394432D4F716DE6809110
:1016F000D9030E949A07852D0E94D80A90CFC6016F
:101700000E94901B222031F0C7010E94901B02C052
:1017100080E001C081E0DF91CF911F910F91FF9098
:10172000EF90DF90CF90BF90AF909F908F907F9081
:101730006F905F904F903F902F9008950F931F935D
:10174000662351F0462F9C0108EE13E064E7809178
:10175000D9030E94AA0702C0FC0110821F910F91B9
:1017600008950F931F93CF93DF93C9EDD3E008EE55
:1017700013E02AED33E042E062E788810E94AA0785
:1017800089819A81982789279827DF91CF911F9186
:101790000F910895EF92FF920F931F93CF93DF93D2
:1017A0001F92CDB7DEB77A0189019E012F5F3F4FAF
:1017B00041E00E94AA07882339F029812E7730E082
:1017C00035952795F70120830F90DF91CF911F91D9
:1017D0000F91FF90EF900895682F82E093E00C94B2
:1017E0005705009769F0FC0101900020E9F7319757
:1017F000AF01481B590BBC0182E093E00C94C40478
:1018000080E090E008958F929F92AF92BF920F93E5
:101810001F93CF93DF93CDB7DEB7A1970FB6F894A0
:10182000DEBF0FBECDBF19A2423008F44AE08E01E0
:101830000F5D1F4F842E912CA12CB12CA50194017A
:101840000E94D01AE62FB901CA0101501109EA30ED
:1018500014F4E05D01C0E95CD801EC93232B242B48
:10186000252B61F7C8010E94F10BA1960FB6F894E1
:10187000DEBF0FBECDBFDF91CF911F910F91BF9003
:10188000AF909F908F9008958F929F92AF92BF924A
:10189000CF92DF92EF92FF920F931F93CF93DF933C
:1018A0006B017C01142F9B01AC010E94CB1A882391
:1018B00019F083E391E027C046015701E894B7F897
:1018C0002FEF3FEF4FE75FE7C501B4010E94CB1A4E
:1018D00081110DC02FEF3FEF4FE75FE7C501B40166
:1018E0000E94FA1818161CF487E391E00CC02FEF41
:1018F0003FEF4FE75FE4C701B6010E94591A18167F
:1019000084F48BE391E0DF91CF911F910F91FF90D1
:10191000EF90DF90CF90BF90AF909F908F900C94FE
:10192000F10B2FEF3FEF4FE75FECC701B6010E94CD
:10193000FA1887FDE6CF20E030E0A901C701B60123
:101940000E94FA1887FF09C08DE20E94EC0BEC019F
:10195000F7FAF094F7F8F09402C0C0E0D0E000E0AD
:1019600060E070E080E09FE3101741F020E030E09D
:1019700040E251E40E94FF180F5FF6CFA7019601E5
:101980000E948E186B017C010E9478194B015C014A
:101990004AE00E94030CC80FD91F1123A9F1C50109
:1019A000B4010E94A7199B01AC01C701B6010E94B6
:1019B0008D186B017C018EE20E94EC0BC80FD91FC1
:1019C00020E030E040E251E4C701B6010E945E1A17
:1019D0004B015C010E9478196B01E12CF12C4AE06B
:1019E000C701B6010E94030CC80FD91FC701B60179
:1019F0000E94A7199B01AC01C501B4010E948D187A
:101A00006B017C011150E1F6CE01DF91CF911F9166
:101A10000F91FF90EF90DF90CF90BF90AF909F908D
:101A20008F90089590E0FC01E45EF64F2491FC0154
:101A3000E85FF64F3491FC01EC50F74FE491EE2350
:101A400009F43CC0222339F1233091F038F42130DD
:101A5000A9F0223001F584B58F7D12C0273091F0B6
:101A60002830A1F02430B9F4809180008F7D03C02C
:101A7000809180008F77809380000DC084B58F7730
:101A800084BD09C08091B0008F7703C08091B00001
:101A90008F7D8093B000F0E0EE0FFF1FE651F74F0F
:101AA000A591B4919FB7F894611104C08C913095C1
:101AB000382302C0EC913E2B3C939FBF08953FB763
:101AC000F8948091ED039091EE03A091EF03B09113
:101AD000F00326B5A89B05C02F3F19F00196A11D64
:101AE000B11D3FBFBA2FA92F982F8827820F911DB4
:101AF000A11DB11DBC01CD0142E0660F771F881FFB
:101B0000991F4A95D1F708958F929F92AF92BF92F5
:101B1000CF92DF92EF92FF926B017C010E945F0DEA
:101B20004B015C01C114D104E104F104F1F00E9405
:101B30005F0DDC01CB0188199909AA09BB09883E10
:101B40009340A105B10570F321E0C21AD108E10864
:101B5000F10888EE880E83E0981EA11CB11CC11408
:101B6000D104E104F10419F7DDCFFF90EF90DF908D
:101B7000CF90BF90AF909F908F9008951F920F923B
:101B80000FB60F9211242F933F938F939F93AF9390
:101B9000BF938091B3029091B402A091B502B0912D
:101BA000B6023091EC0323E0230F2D3720F4019689
:101BB000A11DB11D05C026E8230F0296A11DB11D70
:101BC0002093EC038093B3029093B402A093B502E8
:101BD000B093B6028091ED039091EE03A091EF03D4
:101BE000B091F0030196A11DB11D8093ED03909378
:101BF000EE03A093EF03B093F003BF91AF919F91D9
:101C00008F913F912F910F900FBE0F901F901895BD
:101C1000CF93DF93CDB7DEB7C55BD1090FB6F8948C
:101C2000DEBF0FBECDBF789484B5826084BD84B51D
:101C3000816084BD85B5826085BD85B5816085BDC7
:101C400080916E00816080936E001092810080917F
:101C50008100826080938100809181008160809307
:101C60008100809180008160809380008091B1002C
:101C700084608093B1008091B00081608093B00057
:101C800080917A00846080937A0080917A008260EB
:101C900080937A0080917A00816080937A008091AD
:101CA0007A00806880937A001092C100E09112035C
:101CB000F091130382E08083E0910E03F0910F0313
:101CC0001082E0911003F091110388E0808310925C
:101CD0001A03E0911603F091170386E08083E091E8
:101CE0001403F0911503808180618083E0911403D7
:101CF000F0911503808188608083E0911403F09156
:101D00001503808180688083E0911403F0911503AE
:101D100080818F7D80831092450110924401109242
:101D2000DF02109201031092DD0281E08093DC0259
:101D30001092B70261E082E10E94120D61E083E13E
:101D40000E94120D8091B9008E7F8093B90080911E
:101D5000B9008D7F8093B90088E48093B80085E452
:101D60008093BC008AE096E0909343018093420107
:101D70008BE096E090934101809340018CE080934A
:101D8000B800E5E1F9E02491E1E0F9E084918823ED
:101D900099F090E0880F991FFC01E859FF4FA59139
:101DA000B491FC01E651F74F859194918FB7F89467
:101DB000EC91E22BEC938FBF01E023E042E06BE675
:101DC0008091D9030E94000900E022E044E06BE129
:101DD0008091D9030E94000922E044E06CE18091E7
:101DE000D9030E94000920E046E06BE68091D90308
:101DF0000E94CD0828EE33E04AED53E065E780917C
:101E0000D9030E94CA0B8091DA03843399F721E049
:101E100047E06BE68091D9030E94CD086EE170E047
:101E200080E090E00E94840D20E046E06BE6809127
:101E3000D9030E94CD0840E76DE68091D9030E9446
:101E40009A0786E00E94D80A40E06DE68091D903A7
:101E50000E949A0728EE33E04AED53E060E080915B
:101E6000D9030E94CA0B7090DA0328EE33E04AEDE2
:101E700053E061E08091D9030E94CA0B8090DA039D
:101E800028EE33E04AED53E062E08091D9030E94EE
:101E9000CA0B9090DA034FE765E28091D9030E9464
:101EA0009A0720E045E06AE68091D9030E94CD08B8
:101EB00048E665E28091D9030E949A0721E041E05B
:101EC0006AE68091D9030E94CD0864E170E080E069
:101ED00090E00E94840D01E020E040E069E877E0B6
:101EE00081E691E00E94DE0A882309F4BAC288E004
:101EF00090E00E94F81A7C0100E010E0F801EF5534
:101F0000FF4F6490F801EE55FF4F5490580123E0C5
:101F1000A20EB11CF801ED55FF4FE491EE2309F438
:101F200085C0CE2ED12CE33028F0B601C7010E9427
:101F3000191C7C01D70180E090E08C159D0548F4C8
:101F4000F501E80FF91FEF55FF4FE491ED9301966E
:101F5000F4CF00E0252D462DB601C7010E94DE0A10
:101F600085010C0D1D1D882309F46FC0003C11056F
:101F700008F4C4CFC7010E94901B03E023E042E0B5
:101F80006BE68091D9030E94000942E168E38091E9
:101F9000D9030E949A0744E069E18091D9030E9425
:101FA0009A0701E023E045E06AE18091D9030E94AD
:101FB000000903E023E042E06AE18091D9030E9436
:101FC000000922E044E06BE18091D9030E940009FE
:101FD00043E060E78091D9030E949A0740E061E7FF
:101FE0008091D9030E949A0720E040E060E0809150
:101FF000D9030E94CD08072D26E046E060E08091DD
:10200000D9030E940009082D26E046E061E0809196
:10201000D9030E940009092D26E046E062E0809184
:10202000D9030E940009E12CF12C13C00C5F1F4F53
:10203000F501EF55FF4FE491E13039F442E368E3F5
:102040008091D9030E949A0791CFC7010E94901BEB
:1020500008C2F701EE58FF4FE491A1E8B0E0AC0FE1
:10206000BD1FAE0DB11DEC9381E08E0D3FEFE31A65
:10207000F30A93E09E1568F7CD57DF4F6881C35888
:10208000D04070E09B012E5F3F4F90E0281739074A
:1020900004F700E0CE57DF4F2881C258D040CF5719
:1020A000DF4F4881C158D04081E890E08C0F9D1FE0
:1020B00003960E94DE0A80E0F701EE58FF4FE4919C
:1020C000A1E8B0E0AC0FBD1FA80FB11DEC938F5F6E
:1020D000AFEFEA1AFA0A843078F3CD57DF4F688100
:1020E000C358D04070E0AB014E5F5F4F282F30E007
:1020F000421753070CF700E0CE57DF4F2881C25834
:10210000D040CF57DF4F4881C158D04081E890E0A0
:102110008C0F9D1F03960E94DE0A0E9486180E9463
:10212000B10B682FCE0101960E949E0B42E06FE139
:102130008091D9030E949A074CE961E28091D9030A
:102140000E949A0740E560E28091D9030E949A07B5
:1021500040E062E28091D9030E949A070E948618AB
:1021600021E046E06AE68091D9030E94CD0821E093
:1021700047E06AE68091D9030E94CD0821E043E060
:102180006AE68091D9030E94CD0880E0F701EE58FD
:10219000FF4FE491A1E8B0E0AC0FBD1FA80FB11D47
:1021A000EC938F5FBFEFEB1AFB0A843078F3CD57C7
:1021B000DF4F6881C358D04070E0AB014E5F5F4F86
:1021C000282F30E0421753070CF700E0CE57DF4FBF
:1021D0002881C258D040CF57DF4F4881C158D040E6
:1021E00081E890E08C0F9D1F03960E94DE0A80E03C
:1021F000F701EE58FF4FE491A1E8B0E0AC0FBD1F2E
:10220000A80FB11DEC938F5F2FEFE21AF20A843012
:1022100078F3CD57DF4F6881C358D04070E0AB01F1
:102220004E5F5F4F282F30E0421753070CF700E056
:10223000CE57DF4F2881C258D040CF57DF4F48815B
:10224000C158D04081E890E08C0F9D1F03960E94FA
:10225000DE0A80E0F701EE58FF4FE491A1E8B0E01C
:10226000AC0FBD1FA80FB11DEC938F5F3FEFE31ABA
:10227000F30A843078F3CD57DF4F6881C358D040DC
:1022800070E0AB014E5F5F4F282F30E042175307DD
:102290000CF700E0CE57DF4F2881C258D040CF570F
:1022A000DF4F4881C158D04081E890E08C0F9D1FDE
:1022B00003960E94DE0A0E94B10B83309105D8F389
:1022C000682FCE0101960E949E0B80E0F701EE5828
:1022D000FF4FE491A1E8B0E0AC0FBD1FA80FB11D06
:1022E000EC938F5F9FEFE91AF90A843078F3CD57AA
:1022F000DF4F3880C358D040A32CB12CA5014E5FCE
:102300005F4F282F30E04217530704F7CE57DF4FB7
:102310005880C258D040CF57DF4F2880C158D04096
:10232000422D4F716DE68091D9030E949A07852D49
:102330000E94D80AC12CD12C812C9924939421E895
:10234000622E712C6C0E7D1EA3E06A0E711CCA14E5
:10235000DB0498F5C6014096A816B90618F4432C7C
:102360004C1802C080E1482E842D90E0940125197C
:1023700031092817390714F4452C419493012C0D89
:102380003D1D08EE13E0442D6FE68091D9030E94B5
:10239000AA07C40CD11C540CCA14DB04C0F651109B
:1023A00001C02394422D4F716DE68091D9030E94A4
:1023B0009A07852D0E94D80ACACF0E94B10B83309C
:1023C0009105D8F3682FCE0101960E949E0BF7016C
:1023D000EE58FF4F80E09491A1E8B0E0AC0FBD1F34
:1023E000A80FB11D9C938F5F843070F0CD57DF4FE5
:1023F0006881C358D04070E0AB014E5F5F4F282F1B
:1024000030E04217530714F03196E5CF00E0CE5785
:10241000DF4F2881C258D040CF57DF4F4881C15885
:10242000D04081E890E08C0F9D1F03960E94DE0A49
:1024300020E047E06AE68091D9030E94CD088AE255
:1024400090E09093EB038093EA030E94861808EED5
:1024500013E02AED33E041E06AE38091D9030E9462
:10246000AA0721E047E06AE68091D9030E94CD08DF
:1024700049E069E18091D9030E949A0743E151EF55
:1024800066E08091D9030E946D0741EB5CEF68E044
:102490008091D9030E946D0749EE54E06AE0809173
:1024A000D9030E946D0747E550E063E18091D903AD
:1024B0000E946D074FE050E065E18091D9030E94D2
:1024C0006D074CEE5FEF67E18091D9030E946D07C5
:1024D00080E996E09093010180930001809169006A
:1024E000836080936900E89A8091EA0380934702B1
:1024F00080914601882309F48EC51092460161E05F
:102500008DE00E94120D0E94B10BC755DF4F9983D9
:102510008883C95AD040B0914702CB54DF4FB8836B
:10252000C55BD0402B2F30E0C555DF4F3983288362
:10253000CB5AD0408217930734F3CB54DF4F6881D6
:10254000C55BD04087E491E00E949E0BC755DF4FEA
:1025500088819981C95AD040C555DF4FA881B9817A
:10256000CB5AD0408A1B9B0BC755DF4F998388837A
:10257000C95AD0406090630170906401762467244A
:1025800076247092B8036092B703009167011091AE
:1025900068011027012710271093BA030093B9038D
:1025A00020906B0130906C0132242324322430922D
:1025B000BC032092BB03A0904B01B0904C01BA2405
:1025C000AB24BA24C0904F01D0905001DC24CD241C
:1025D000DC24E0905301F0905401FE24EF24FE240B
:1025E0006091470170914801762767277627072E6B
:1025F000000C880B990B0E94A91920E030E040E8FC
:1026000058E30E945E1AC756DF4F688379838A8336
:102610009B83C959D0406093C9037093CA038093C8
:10262000CB039093CC03B501BB0C880B990B0E9494
:10263000A91920E030E040E858E30E945E1ACB562A
:10264000DF4F688379838A839B83C559D040609329
:10265000CD037093CE038093CF039093D003B60144
:10266000DD0C880B990B0E94A91920E030E040E8AE
:1026700058E30E945E1ACF56DF4F688379838A83BE
:102680009B83C159D0406093D1037093D203809350
:10269000D3039093D403B701FF0C880B990B0E94CE
:1026A000A91920E030E040E858E30E945E1AC356C2
:1026B000DF4F688379838A839B83CD59D0406093B1
:1026C000D5037093D6038093D7039093D8039B01CF
:1026D000AC01CB56DF4F688179818A819B81C559D6
:1026E000D0400E945E1A6B017C01CF56DF4F2881DB
:1026F00039814A815B81C159D040C756DF4F68811B
:1027000079818A819B81C959D0400E945E1A9B01C0
:10271000AC01C701B6010E948D189B01AC010E945B
:102720008E18CF55DF4F688379838A839B83C15A84
:10273000D0406093BD037093BE038093BF0390931A
:10274000C003CB56DF4F288139814A815B81C5594F
:10275000D040C756DF4F688179818A819B81C959F2
:10276000D0400E945E1A6B017C01C356DF4F288166
:1027700039814A815B81CD59D040CF56DF4F688186
:1027800079818A819B81C159D0400E945E1A9B0148
:10279000AC01C701B6010E948E189B01AC010E94DA
:1027A0008E184B015C016093C1037093C203809348
:1027B000C3039093C403C756DF4F288139814A81F0
:1027C0005B81C959D040CA01B9010E945E1A6B01F0
:1027D0007C01CB56DF4F288139814A815B81C55905
:1027E000D040CA01B9010E945E1A9B01AC01C70129
:1027F000B6010E948D186B017C01CF56DF4F2881F6
:1028000039814A815B81C159D040CA01B9010E9416
:102810005E1A9B01AC01C701B6010E948D186B01C5
:102820007C01C356DF4F288139814A815B81CD59B4
:10283000D040CA01B9010E945E1A9B01AC01C701D8
:10284000B6010E948E186B017C016093C5037093E2
:10285000C6038093C7039093C803B301770C880B1A
:10286000990B0E94A9192B013C0120E030E040E0C7
:1028700056E4CF55DF4F688179818A819B81C15AA7
:10288000D0400E945E1A9B01AC01C301B2010E94BC
:102890008D180E947119CB55DF4F688379838A8325
:1028A0009B83C55AD040CB55DF4F28813981C55A0B
:1028B000D0403093B2032093B103B801110F880BBD
:1028C000990B0E94A9192B013C0120E030E040E067
:1028D00056E4C501B4010E945E1A9B01AC01C3011C
:1028E000B2010E948D180E9471194B015C01709316
:1028F000B4036093B303B101330C880B990B0E94AE
:10290000A9192B013C0120E030E040E056E4C7016A
:10291000B6010E945E1A9B01AC01C301B2010E9484
:102920008D180E9471197093B6036093B50326E069
:10293000E1EBF3E0ABEAB3E001900D922A95E1F709
:10294000072E000C880B990B0E94A919CF55DF4F59
:10295000688379838A839B83C15AD040B401990CE0
:10296000880B990B0E94A9196B017C01CB55DF4F95
:10297000A881B981C55AD040BD01BB0F880B990B06
:102980000E94A9194B015C01CF55DF4F2881398185
:102990004A815B81C15AD040C756DF4F6881798137
:1029A0008A819B81C959D0400E945E1A2B013C014B
:1029B000A7019601CB56DF4F688179818A819B817F
:1029C000C559D0400E945E1A9B01AC01C301B201FF
:1029D0000E948E182B013C01A5019401CF56DF4FB8
:1029E000688179818A819B81C159D0400E945E1A99
:1029F0009B01AC01C301B2010E948D182B013C0167
:102A000020E030E0A901C356DF4F688179818A81D7
:102A10009B81CD59D0400E945E1A9B01AC01C3013D
:102A2000B2010E948E18CB55DF4F688379838A8369
:102A30009B83C55AD040A7019601C756DF4F6881D6
:102A400079818A819B81C959D0400E945E1A2B01ED
:102A50003C01CF55DF4F288139814A815B81C15AC2
:102A6000D040CB56DF4F688179818A819B81C559DF
:102A7000D0400E945E1A9B01AC01C301B2010E94CA
:102A80008D182B013C0120E030E0A901CF56DF4F2B
:102A9000688179818A819B81C159D0400E945E1AE8
:102AA0009B01AC01C301B2010E948E182B013C01B5
:102AB000A5019401C356DF4F688179818A819B818A
:102AC000CD59D0400E945E1A9B01AC01C301B201F6
:102AD0000E948E18C355DF4F688379838A839B8356
:102AE000CD5AD040A5019401C756DF4F6881798146
:102AF0008A819B81C959D0400E945E1A2B013C01FA
:102B000020E030E0A901CB56DF4F688179818A81CE
:102B10009B81C559D0400E945E1A9B01AC01C30144
:102B2000B2010E948E182B013C01CF55DF4F288146
:102B300039814A815B81C15AD040CF56DF4F6881CD
:102B400079818A819B81C159D0400E945E1A9B0184
:102B5000AC01C301B2010E948E182B013C01A701F8
:102B60009601C356DF4F688179818A819B81CD5957
:102B7000D0400E945E1A9B01AC01C301B2010E94C9
:102B80008D18CF54DF4F688379838A839B83C15B21
:102B9000D04020E030E0A901C756DF4F688179813D
:102BA0008A819B81C959D0400E945E1A2B013C0149
:102BB000A5019401CB56DF4F688179818A819B8181
:102BC000C559D0400E945E1A9B01AC01C301B201FD
:102BD0000E948D184B015C01A7019601CF56DF4F73
:102BE000688179818A819B81C159D0400E945E1A97
:102BF0009B01AC01C501B4010E948D186B017C01E1
:102C0000CF55DF4F288139814A815B81C15AD0403D
:102C1000C356DF4F688179818A819B81CD59D0402D
:102C20000E945E1A9B01AC01C701B6010E948D187B
:102C30004B015C01C356DF4FC880D980EA80FB801E
:102C4000CD59D040F7FAF094F7F8F094CF56DF4F13
:102C500088819981AA81BB81C159D040B058CF5693
:102C6000DF4F88839983AA83BB83C159D040CB5659
:102C7000DF4F88819981AA81BB81C559D040B05866
:102C8000CB56DF4F88839983AA83BB83C559D04035
:102C9000A5019401BC01CD010E945E1A2B013C01EB
:102CA000CF54DF4F288139814A815B81C15BD0409D
:102CB000C756DF4F688179818A819B81C959D0408D
:102CC0000E945E1A9B01AC01C301B2010E948E18E2
:102CD0002B013C01C355DF4F288139814A815B813B
:102CE000CD5AD040C701B6010E945E1A9B01AC01CB
:102CF000C301B2010E948E182B013C01CB55DF4F5E
:102D0000288139814A815B81C55AD040CF56DF4F37
:102D1000688179818A819B81C159D0400E945E1A65
:102D20009B01AC01C301B2010E948D180E94711970
:102D30007093AC036093AB03A5019401CF56DF4FB2
:102D4000688179818A819B81C159D0400E945E1A35
:102D50002B013C01CF54DF4F288139814A815B81AF
:102D6000C15BD040C701B6010E945E1A9B01AC0155
:102D7000C301B2010E948D182B013C01C355DF4FE6
:102D8000288139814A815B81CD5AD040C756DF4FB7
:102D9000688179818A819B81C959D0400E945E1ADD
:102DA0009B01AC01C301B2010E948E182B013C01B2
:102DB000CB55DF4F288139814A815B81C55AD0408C
:102DC000CB56DF4F688179818A819B81C559D0407C
:102DD0000E945E1A9B01AC01C301B2010E948E18D1
:102DE0000E9471197093AE036093AD03A501940125
:102DF000C701B6010E945E1A6B017C01CF54DF4F00
:102E0000288139814A815B81C15BD040CF56DF4F39
:102E1000688179818A819B81C159D0400E945E1A64
:102E20009B01AC01C701B6010E948E186B017C01A9
:102E3000C355DF4F288139814A815B81CD5AD0400B
:102E4000CB56DF4F688179818A819B81C559D040FB
:102E50000E945E1A9B01AC01C701B6010E948D1849
:102E60006B017C01CB55DF4F288139814A815B8121
:102E7000C55AD040C756DF4F688179818A819B81CE
:102E8000C959D0400E945E1A9B01AC01C701B6012E
:102E90000E948E180E9471197093B0036093AF0363
:102EA000C555DF4FA881B981CB5AD040C755DF4FF8
:102EB00028813981C95AD0402A173B070CF03DCBF5
:102EC00060E08DE00E94120D6091CD037091CE0301
:102ED0008091CF039091D00342E00E94440C80E2A5
:102EE0000E94EC0B6091D1037091D2038091D303C7
:102EF0009091D40342E00E94440C80E20E94EC0BCB
:102F00006091D5037091D6038091D7039091D80337
:102F100042E00E94440C80E20E94EC0B6091C903E5
:102F20007091CA038091CB039091CC0342E00E9440
:102F3000440C80E20E94EC0B6091AB037091AC03F7
:102F4000072E000C880B990B0E94A91920E030E095
:102F500040E059E30E945E1A42E00E94440C80E285
:102F60000E94EC0B6091AD037091AE03072E000C34
:102F7000880B990B0E94A91920E030E040E059E34A
:102F80000E945E1A42E00E94440C80E20E94EC0B18
:102F90006091AF037091B003072E000C880B990B62
:102FA0000E94A91920E030E040E059E30E945E1A37
:102FB00042E00E94440C80E20E94EC0B0E945F0DF4
:102FC00060934C0270934D0280934E0290934F0297
:102FD000009148021091490220914A0230914B021F
:102FE000601B710B820B930B4AE00E94030C80E381
:102FF00091E00E94F10B80914C0290914D02A091C2
:103000004E02B0914F028093480290934902A093E0
:103010004A02B0934B020E94C6056ACAE2E0F3E09E
:103020001382128288EE93E0A0E0B0E0848395835F
:10303000A683B78320E131E03183208325EC30E0A3
:103040003587248724EC30E03787268720EC30E072
:10305000318B208B21EC30E0338B228B22EC30E063
:10306000358B248B26EC30E0378B268B118E128E1D
:10307000138E148EEFE9F3E013821282848395831A
:10308000A683B78382E291E09183808388E6809370
:10309000D903E9ECF3E080E090E0A0E8BFE38083AF
:1030A0009183A283B38314821582168217821086BD
:1030B0001186128613861486158616861786EDEB02
:1030C000F3E010821182128213821482158216821A
:1030D00017821086118612861386E7EBF3E01182C1
:1030E00010821382128215821482E1EBF3E01182C6
:1030F00010821382128215821482EBEAF3E01182AD
:1031000010821382128215821482089521E042E017
:103110006AE68091D9030C94CD085058BB27AA27A2
:103120000E94A5180C941F1A0E94111A38F00E94D0
:10313000181A20F039F49F3F19F426F40C940E1A53
:103140000EF4E095E7FB0C94081AE92F0E94301A60
:1031500058F3BA17620773078407950720F079F4CC
:10316000A6F50C94521A0EF4E0950B2EBA2FA02D52
:103170000B01B90190010C01CA01A0011124FF2724
:10318000591B99F0593F50F4503E68F11A16F0401F
:10319000A22F232F342F4427585FF3CF469537951E
:1031A0002795A795F0405395C9F77EF41F16BA0BE3
:1031B000620B730B840BBAF09150A1F0FF0FBB1F91
:1031C000661F771F881FC2F70EC0BA0F621F731FDA
:1031D000841F48F4879577956795B795F7959E3F37
:1031E00008F0B0CF9395880F08F09927EE0F9795C8
:1031F000879508950E94E41908F481E008950E94DB
:1032000013190C941F1A0E94181A58F00E94111AD0
:1032100040F029F45F3F29F00C94081A51110C94E6
:10322000531A0C940E1A0E94301A68F39923B1F3C2
:10323000552391F3951B550BBB27AA2762177307DC
:10324000840738F09F5F5F4F220F331F441FAA1F70
:10325000A9F335D00E2E3AF0E0E832D0915050402C
:10326000E695001CCAF72BD0FE2F29D0660F771FDA
:10327000881FBB1F261737074807AB07B0E809F0C0
:10328000BB0B802DBF01FF2793585F4F3AF09E3F45
:10329000510578F00C94081A0C94531A5F3FE4F32C
:1032A000983ED4F3869577956795B795F7959F5F88
:1032B000C9F7880F911D9695879597F90895E1E0D4
:1032C000660F771F881FBB1F621773078407BA0733
:1032D00020F0621B730B840BBA0BEE1F88F7E0958E
:1032E00008950E9478196894B1110C94531A0895A6
:1032F0000E94381A88F09F5798F0B92F9927B75134
:10330000B0F0E1F0660F771F881F991F1AF0BA9589
:10331000C9F714C0B13091F00E94521AB1E008957B
:103320000C94521A672F782F8827B85F39F0B93F6D
:10333000CCF3869577956795B395D9F73EF490953C
:103340008095709561957F4F8F4F9F4F0895E894BA
:1033500009C097FB3EF490958095709561957F4FDD
:103360008F4F9F4F9923A9F0F92F96E9BB2793958B
:10337000F695879577956795B795F111F8CFFAF49B
:10338000BB0F11F460FF1BC06F5F7F4F8F4F9F4FCC
:1033900016C0882311F096E911C0772321F09EE82A
:1033A000872F762F05C0662371F096E8862F70E090
:1033B00060E02AF09A95660F771F881FDAF7880F6A
:1033C0009695879597F90895990F0008550FAA0BC0
:1033D000E0E8FEEF16161706E807F907C0F0121628
:1033E0001306E407F50798F0621B730B840B950B2B
:1033F00039F40A2661F0232B242B252B21F4089580
:103400000A2609F4A140A6958FEF811D811D08951C
:1034100097F99F6780E870E060E008959FEF80EC87
:10342000089500240A94161617061806090608952A
:1034300000240A9412161306140605060895092E90
:103440000394000C11F4882352F0BB0F40F4BF2BFF
:1034500011F460FF04C06F5F7F4F8F4F9F4F08953F
:1034600057FD9058440F551F59F05F3F71F0479535
:10347000880F97FB991F61F09F3F79F0879508951A
:10348000121613061406551FF2CF4695F1DF08C039
:10349000161617061806991FF1CF86957105610556
:1034A00008940895E894BB2766277727CB0197F9FE
:1034B00008950E94E41908F48FEF08950E94711A8C
:1034C0000C941F1A0E94111A38F00E94181A20F04A
:1034D000952311F00C94081A0C940E1A11240C94D4
:1034E000531A0E94301A70F3959FC1F3950F50E064
:1034F000551F629FF001729FBB27F00DB11D639FA6
:10350000AA27F00DB11DAA1F649F6627B00DA11D4B
:10351000661F829F2227B00DA11D621F739FB00DF1
:10352000A11D621F839FA00D611D221F749F332761
:10353000A00D611D231F849F600D211D822F762FFA
:103540006A2F11249F5750409AF0F1F088234AF0D7
:10355000EE0FFF1FBB1F661F771F881F9150504043
:10356000A9F79E3F510580F00C94081A0C94531A49
:103570005F3FE4F3983ED4F3869577956795B795CA
:10358000F795E7959F5FC1F7FE2B880F911D9695E4
:10359000879597F908950E94E419880B990B08956F
:1035A000A1E21A2EAA1BBB1BFD010DC0AA1FBB1F47
:1035B000EE1FFF1FA217B307E407F50720F0A21BB9
:1035C000B30BE40BF50B661F771F881F991F1A9426
:1035D00069F760957095809590959B01AC01BD0150
:1035E000CF010895EE0FFF1F0590F491E02D09948F
:1035F0000F931F93CF93DF938230910510F482E0F5
:1036000090E0E091F303F091F40320E030E0A0E0DB
:10361000B0E0309719F14081518102811381481740
:103620005907C8F08417950769F4109731F012967E
:103630000C93129713961C9327C00093F3031093D7
:10364000F40322C02115310519F04217530718F46D
:103650009A01BD01EF01DF01F801DBCF2115310532
:10366000F9F0281B390B2430310580F48A819B81C5
:103670006115710521F0FB019383828304C090934F
:10368000F4038093F303FE01329644C0FE01E20F7F
:10369000F31F8193919322503109398328833AC0D3
:1036A0002091F1033091F203232B41F42091060184
:1036B000309107013093F2032093F103209104012C
:1036C000309105012115310541F42DB73EB74091E8
:1036D000080150910901241B350BE091F103F09191
:1036E000F203E217F307A0F42E1B3F0B281739074C
:1036F00078F0AC014E5F5F4F2417350748F04E0F4E
:103700005F1F5093F2034093F1038193919302C0A2
:10371000E0E0F0E0CF01DF91CF911F910F9108958C
:10372000CF93DF93009709F481C0FC013297138295
:103730001282A091F303B091F403109781F42081D9
:103740003181820F931F2091F1033091F2032817EA
:10375000390751F5F093F203E093F10367C0ED01EF
:1037600020E030E0CE17DF0740F44A815B819E0104
:1037700041155105F1F0EA01F5CFD383C2834081B1
:103780005181840F951FC817D90759F488819981F1
:10379000840F951F0296918380838A819B819383F6
:1037A00082832115310529F4F093F403E093F303A8
:1037B0003DC0E901FB83EA8349915991C40FD51FAC
:1037C000EC17FD0761F480819181840F951F0296AB
:1037D000E90199838883828193819B838A83E0E0D6
:1037E000F0E012968D919C911397009719F0FD01CE
:1037F000DC01F7CF8D919C9111979D012E5F3F4F7A
:10380000820F931F2091F1033091F203281739079B
:1038100069F4309729F41092F4031092F30302C074
:1038200013821282B093F203A093F103DF91CF9140
:103830000895A0E0B0E0EFE1FCE10C94FE1CEC0187
:10384000009721F4CB010E94F81AB4C0FC01E60FE6
:10385000F71F9C0122503109E217F30708F4A8C0B2
:10386000D9010D911C91119706171707B0F005307B
:10387000110508F49BC0C80104978617970708F440
:1038800095C002501109061B170B019311936D93FC
:103890007C93CF010E94901B89C05B01A01AB10AE2
:1038A0004C01800E911EA091F303B091F403612CA2
:1038B000712CE12CF12C109709F446C08D919C914C
:1038C0001197A815B905B1F56C0142E0C40ED11CE1
:1038D000CA14DB0478F14C018A189B08640142E0A9
:1038E000C40ED11C1296BC9012971396AC91B5E001
:1038F000CB16D10440F0B282A38391828082D90199
:103900006D937C9309C00E5F1F4F800F911FF901CB
:1039100091838083EB2DFA2FE114F10431F0D7016C
:103920001396FC93EE93129741C0F093F403E09347
:10393000F3033CC06816790608F43C017D01129639
:103940000D90BC91A02DB7CF8091F1039091F2031F
:1039500088169906E1F466167706C8F4809104018A
:1039600090910501009741F48DB79EB740910801F1
:1039700050910901841B950BE817F907C8F4F093DF
:10398000F203E093F103F901718360830FC0CB016F
:103990000E94F81A7C01009759F0A801BE010E940C
:1039A000F11CCE010E94901BC70104C0CE0102C0D1
:1039B00080E090E0CDB7DEB7EEE00C941A1D81E018
:1039C00090E0F8940C94311DFB01DC0104C08D9152
:1039D0000190801921F441505040C8F7881B990B81
:1039E0000895FB01DC0102C001900D92415050404E
:1039F000D8F708952F923F924F925F926F927F92E5
:103A00008F929F92AF92BF92CF92DF92EF92FF92EE
:103A10000F931F93CF93DF93CDB7DEB7CA1BDB0B9A
:103A20000FB6F894DEBF0FBECDBF09942A8839883F
:103A300048885F846E847D848C849B84AA84B98446
:103A4000C884DF80EE80FD800C811B81AA81B98152
:103A5000CE0FD11D0FB6F894DEBF0FBECDBFED0166
:063A60000895F894FFCF69
:103A6600C304C3040000F5038000E803000000005F
:103A76005705C404EE04A4051F05FD041105000046
:103A860000005D0630068D060C06D0051C060D06E8
:103A96000D0A006E616E00696E66006F7666000044
:107800000C94343C0C94513C0C94513C0C94513CE1
:107810000C94513C0C94513C0C94513C0C94513CB4
:107820000C94513C0C94513C0C94513C0C94513CA4
:107830000C94513C0C94513C0C94513C0C94513C94
:107840000C94513C0C94513C0C94513C0C94513C84
:107850000C94513C0C94513C0C94513C0C94513C74
:107860000C94513C0C94513C11241FBECFEFD8E036
:10787000DEBFCDBF11E0A0E0B1E0ECE9FFE702C060
:1078800005900D92A230B107D9F712E0A2E0B1E065
:1078900001C01D92AD30B107E1F70E942D3D0C945F
:1078A000CC3F0C94003C982F959595959595959582
:1078B000905D8F708A307CF0282F295A8091C0000B
:1078C00085FFFCCF9093C6008091C00085FFFCCF60
:1078D0002093C6000895282F205DF0CF982F809127
:1078E000C00085FFFCCF9093C6000895EF92FF92F1
:1078F0000F931F93EE24FF2487018091C00087FD22
:1079000017C00894E11CF11C011D111D81E4E8164B
:1079100082E4F8068FE0080780E0180770F3E09132
:107920000401F091050109958091C00087FFE9CF1E
:107930008091C6001F910F91FF90EF9008950E94D3
:10794000763C982F8091C00085FFFCCF9093C600B5
:1079500091362CF490330CF09053892F089597555D
:10796000892F08951F930E949F3C182F0E949F3CCF
:107970001295107F810F1F9108951F93182F882350
:1079800021F00E94763C1150E1F71F9108951F935A
:10799000182F0E94763C803249F0809103018F5F5E
:1079A000809303018530C1F01F9108958091C0003C
:1079B00085FFFCCF84E18093C6008091C00085FFE5
:1079C000FCCF1093C6008091C00085FFFCCF80E102
:1079D0008093C6001F910895E0910401F091050184
:1079E00009951F9108950E94763C803241F0809164
:1079F00003018F5F80930301853081F008958091AA
:107A0000C00085FFFCCF84E18093C6008091C00058
:107A100085FFFCCF80E18093C6000895E0910401CA
:107A2000F09105010995089540E951E08823A1F0FE
:107A30002D9A28EE33E0FA013197F1F721503040CA
:107A4000D1F72D9828EE33E0FA013197F1F7215064
:107A50003040D1F7815061F708953F924F925F9285
:107A60006F927F928F929F92AF92BF92CF92DF924E
:107A7000EF92FF920F931F93CF93DF93000080E16B
:107A80008093C4001092C50088E18093C10086E015
:107A90008093C2005098589A259A81E00E94143D24
:107AA00024E1F22E9EE1E92E85E9D82E0FE0C02ECA
:107AB00010E1B12EAA24A394B1E49B2EA6E58A2E50
:107AC000F2E57F2EE0E26E2E79E4572E63E5462E36
:107AD00050E5352E0E94763C8033B1F18133B9F107
:107AE000803409F46FC0813409F476C0823409F41B
:107AF00085C0853409F488C0803531F1823521F1A3
:107B0000813511F1853509F485C0863509F48DC0BC
:107B1000843609F496C0843709F403C1853709F423
:107B200072C1863709F466C0809103018F5F80932C
:107B30000301853079F6E0910401F0910501099582
:107B40000E94763C803351F60E94F33CC3CF0E94E2
:107B5000763C803249F78091C00085FFFCCFF092DF
:107B6000C6008091C00085FFFCCF9092C600809136
:107B7000C00085FFFCCF8092C6008091C00085FFC9
:107B8000FCCF7092C6008091C00085FFFCCF609250
:107B9000C6008091C00085FFFCCF5092C600809146
:107BA000C00085FFFCCF4092C6008091C00085FFD9
:107BB000FCCF3092C6008091C00085FFFCCFB09210
:107BC000C60088CF0E94763C863808F4BDCF0E945C
:107BD000763C0E94F33C7ECF0E94763C803809F4CC
:107BE0009CC0813809F40BC1823809F43CC1883942
:107BF00009F48FC080E00E94C73C6CCF84E10E94F2
:107C0000BD3C0E94F33C66CF85E00E94BD3C0E94D3
:107C1000F33C60CF0E94763C809306010E94763C44
:107C2000809307010E94F33C55CF0E94763C80333D
:107C300009F41DC183E00E94BD3C80E00E94C73C66
:107C400049CF0E94763C809309020E94763C809343
:107C5000080280910C028E7F80930C020E94763C79
:107C6000853409F415C18091080290910902892B8D
:107C700089F000E010E00E94763CF801E85FFE4FDA
:107C800080830F5F1F4F80910802909109020817AF
:107C9000190788F30E94763C803209F045CF809125
:107CA0000C0280FF01C16091060170910701660F0F
:107CB000771F7093070160930601A0910802B091AD
:107CC00009021097C9F0E8E0F1E09B01AD014E0F09
:107CD0005F1FF999FECF32BD21BD819180BDFA9A17
:107CE000F99A2F5F3F4FE417F50799F76A0F7B1F4B
:107CF00070930701609306018091C00085FFFCCF5F
:107D0000F092C6008091C00085FFFCCFB092C60003
:107D1000E1CE83E00E94C73CDDCE82E00E94C73CFA
:107D2000D9CE0E94763C809309020E94763C8093D3
:107D300008028091060190910701880F991F909386
:107D40000701809306010E94763C853409F4A6C0A1
:107D500080910C028E7F80930C020E94763C8032D0
:107D600009F0B8CE8091C00085FFFCCFF092C6002C
:107D7000609108027091090261157105B9F140E046
:107D800050E080910C02A82FA170B82FB27011C0E2
:107D9000BB2309F45CC0E0910601F0910701319624
:107DA000F0930701E09306014F5F5F4F46175707B7
:107DB000E8F4AA2369F3F999FECF209106013091E6
:107DC000070132BD21BDF89A90B58091C00085FFB2
:107DD000FCCF9093C6002F5F3F4F30930701209355
:107DE00006014F5F5F4F4617570718F38091C00099
:107DF00085FDE5CE8091C00085FFF8CFE0CE81E023
:107E00000E94C73C67CE0E94763C803209F08CCE3F
:107E10008091C00085FFFCCFF092C6008091C00029
:107E200085FFFCCFE092C6008091C00085FFFCCFAB
:107E3000D092C6008091C00085FFFCCFC092C600E2
:107E40008091C00085FFFCCFB092C60043CEE09188
:107E50000601F091070194918091C00085FFFCCF4D
:107E60009093C6009CCF80E10E94C73C33CE0E9415
:107E7000763C0E94763C182F0E94763C112309F430
:107E800083C0113009F484C08FE00E94C73C22CE29
:107E900080910C02816080930C02E5CE80910C02EF
:107EA000816080930C0259CF809107018823880F4D
:107EB000880B8A2180930B02809106019091070123
:107EC000880F991F90930701809306018091080203
:107ED00080FF09C080910802909109020196909359
:107EE000090280930802F894F999FECF1127E091D6
:107EF0000601F0910701C8E0D1E08091080290915D
:107F00000902103091F40091570001700130D9F34B
:107F100003E000935700E89500915700017001308D
:107F2000D9F301E100935700E89509901990009169
:107F3000570001700130D9F301E000935700E89534
:107F40001395103498F011270091570001700130FB
:107F5000D9F305E000935700E895009157000170B0
:107F60000130D9F301E100935700E895329602976A
:107F700009F0C7CF103011F00296E5CF112480919F
:107F8000C00085FFB9CEBCCE8EE10E94C73CA2CD19
:0C7F900085E90E94C73C9ECDF894FFCF0D
:027F9C00800063
:040000030000780081
:00000001FF
